:020000040800F2
:100000000050002021020008270200082B020008EF
:100010009D020008A1020008E9020008000000009B
:100020000000000000000000000000003103000894
:10003000350300080000000039030008CD0900085E
:100040004D0300084D0300084D0300084D03000850
:100050004D0300084D0300084D0300084D03000840
:100060004D0300084D0300084D0300084D03000830
:100070004D0300084D0300084D0300084D03000820
:100080004D0300084D0300084D0300084D03000810
:100090004D0300084D0300084D0300084D03000800
:1000A0004D0300084D0300084D0300084D030008F0
:1000B0004D0300084D0300084D0300084D030008E0
:1000C0004D0300084D0300084D0300089109000886
:1000D0004D0300084D0300084D0300084D030008C0
:1000E0004D0300084D0300084D0300080000000008
:1000F0000000000000000000000000000000000000
:1001000000000000000000005FF808F100B583B0B7
:1001100000F0AAF9304B314A1360314A1360314B79
:10012000314A32498B4204D21168196004330432D7
:10013000F7E72A4B1A682E4B9A4200D0FEE7284B6D
:100140001A682C4B9A42F9D1234B2B4A13602B4A45
:1001500013602B4B02E000221A600433294A9342B9
:10016000F9D3254B1B6813B9244B1B6803B1FEE779
:1001700000F086F9694601A800F022F9224C234BD1
:10018000E41AA4100025AC4214DC214C214BE41AE3
:10019000A4100025AC4213DC0099019800F0F4FC97
:1001A00005461D4C1D4BE41AA410002C0EDC2846FD
:1001B00000F0E2F8154B53F8253098470135E2E797
:1001C000144B53F8253098470135E3E7013C134BB6
:1001D00053F824309847E8E7BABADECA0000002096
:1001E000840000200000002078B50008880000206E
:1001F0007856341232547698880000202C01002062
:1002000088000020300100207803000878030008EF
:1002100078030008780300087803000878030008D2
:1002200008B5FFF773FF00BEFEE71EF0040F0CBF1A
:10023000EFF30880EFF309807146414A10472DE93A
:10024000F04182B004468846124B5E6B9F6B9D6AFC
:100250001B6B13F0020F03D00E4BDB6A002B0CDB81
:100260000D4800F0B5F8CDF800803B4632462946EF
:10027000204600F009F900BEFEE74BF6AB6100F046
:100280007DF90028ECD0034B4FF00042DA6202B057
:10029000BDE8F08100ED00E01815000800BEFEE7A3
:1002A0001EF0040F0CBFEFF30880EFF309807146D6
:1002B000244A10472DE9F04182B004468846084B95
:1002C0005E6B9F6B9D6A074800F082F8CDF8008056
:1002D0003B4632462946204600F0D6F800BEFEE7EF
:1002E00000ED00E0281500081EF0040F0CBFEFF32E
:1002F0000880EFF309807146134A10472DE9F04159
:1003000082B004468846084B5E6B9F6B9D6A074827
:1003100000F05EF8CDF800803B4632462946204684
:1003200000F0B2F800BEFEE700ED00E03415000872
:1003300000BEFEE700BEFEE700BEFEE7704700001D
:100340003F020008B5020008FD02000800BEFEE7FB
:1003500078B50008000000208800002078B500086B
:100360000000000000000000880000203001002094
:08037000000000000000000085
:10037800FEE7000008B503460C4A12685AB10B4A5A
:100388001068033323F003030344094A934206D851
:10039800064A136008BD054A06491160EFE700F0F8
:1003A800F9FB0C2303604FF0FF30F3E78C000020CB
:1003B800004C00203001002001230360014B0B603A
:1003C800704700BF040000200FB400B583B004AB31
:1003D80053F8042B01938021064800F00DFC0028F7
:1003E80003DD0146034800F037F803B05DF804EB7D
:1003F80004B07047940000202DE9F04385B004460E
:100408000F4643560BB10E461EE0042528462146EA
:10041800ABBE0446384605B0BDE8F08314F9011BAD
:1004280004AA1A4402F8101C0133AB42F6D304AAFA
:100438001344002203F8102C4FF00408E946404604
:100448004946ABBE8046761B002EE3D03546102EBB
:1004580028BF10250023E8E708B5FFF7CDFF08BD42
:1004680008B500F0FDF8024A024B9A6008BD00BFCB
:100478000000000800ED00E008B500F019F908BD1B
:10048800F8B504460D4617461E462748FFF79CFF59
:1004980021682648FFF798FF61682548FFF794FF11
:1004A800A1682448FFF790FFE1682348FFF78CFF15
:1004B80021692248FFF788FF61692148FFF784FF17
:1004C800A1692048FFF780FFE1691F48FFF77CFF1B
:1004D8001E48FFF779FF29461D48FFF775FF1D4C99
:1004E800E16A1D48FFF770FF216B1C48FFF76CFF9E
:1004F800E16B1B48FFF768FF15F0800F0AD115F470
:10050800004F0CD11748FFF75FFF06991648FFF711
:100518005BFFF8BD39461548FFF756FFEFE7314650
:100528001348FFF751FFEDE7FC1300080C1400080F
:100538001C1400082C1400083C1400084C14000873
:100548005C1400086C1400087C1400088C14000863
:100558009814000800ED00E0A8140008B81400087A
:10056800C8140008F814000800150008D81400087A
:10057800E814000883691A888A4201D0002070476D
:100588000268033A012A03D80233836101207047C5
:100598000020704782B00023019300932C4A13680F
:1005A80043F4803313602A4B1B6803F40033009331
:1005B800019B01330193009B1BB9019BB3F5A06F0D
:1005C800F1D1234B1B6813F4003F06D0012300939D
:1005D800009B012B04D002B0704700230093F7E77B
:1005E8001C4B1A6842F010021A601A6822F00302C3
:1005F8001A601A6842F002021A60A3F580535A681A
:100608005A605A685A605A6842F480625A605A6856
:1006180022F47C125A605A6842F4E8125A601A6846
:1006280042F080721A600A4B1B6813F0007FFAD000
:10063800074B5A6822F003025A605A6842F00202D5
:100648005A60034B5B6803F00C03082BF9D1C2E72F
:10065800001002400020024008B5FFF79BFF08BDCC
:1006680008B5104B1A6842F001021A6059680E4A20
:100678000A405A601A6822F0847222F480321A60A2
:100688001A6822F480221A605A6822F4FE025A601C
:100698004FF41F029A60FFF7DFFF044B4FF0006230
:1006A8009A6008BD001002400000FFF800ED00E06D
:1006B8001F4B5B6803F00C03042B15D0082B17D0D5
:1006C8001BB11C4B1C4A1A6002E01A4B1A4A1A60EA
:1006D800174B5B68C3F30313184AD35CDAB21549A6
:1006E8000B68D3400B607047124B134A1A60EFE750
:1006F8000F4A53685268C3F38343023312F4803FAE
:100708000AD00B4A526812F4003F0BD00C4A02FB85
:1007180003F3084A1360DBE7094A02FB03F3054ABF
:100728001360D5E7044A02FB03F3024A1360CFE7DC
:10073800001002401C00002000127A000C0000206B
:1007480000093D0010B4012824D018B1022841D076
:1007580010BC7047072910D90F29F9D8A1F108044E
:10076800E4B2A4000F23A3402A48016821EA030346
:1007780002FA04F119430160EAE789000F2303FA3A
:1007880001F0254C236823EA000302FA01F119431A
:100798002160DDE7072910D90F29D9D8A1F1080070
:1007A800C0B280000F2383401C4C216821EA030358
:1007B80002FA00F119432160CAE789000F2303FAFE
:1007C80001F0174C236823EA000302FA01F11943E8
:1007D8002160BDE7072910D90F29B9D8A1F108036D
:1007E800DBB29B000F2098400E4C216821EA0000E4
:1007F80002FA03F101432160AAE789000F2303FAF3
:1008080001F0094C236823EA000302FA01F11943B5
:1008180021609DE70408014000080140040C0140E4
:10082800000C01400410014000100140012812D0C2
:1008380010B102281ED07047012A06D012BB01232E
:1008480003FA01F1134B19607047012303FA01F110
:10085800114B19607047012A06D09AB9012303FA8F
:1008680001F10E4B19607047012303FA01F10C4B9B
:1008780019607047012A06D022B9012303FA01F151
:10088800084B19607047012303FA01F1064B196000
:10089800704700BF1408014010080140140C0140C3
:1008A800100C01401410014010100140054B4FF48A
:1008B80080321A60044A054911601A6842F0807251
:1008C8001A607047001002400410024002002F0016
:1008D8001F291CD801280BD010B1022810D070474E
:1008E8000B480368012202FA01F1194301607047BD
:1008F80008480368012202FA01F1194301607047B0
:1009080005480368012202FA01F1194301607047A2
:10091800141002401C1002401810024008B50922A9
:1009280007210020FFF70EFF042206210020FFF711
:1009380009FF092205210020FFF704FF044B40F2BC
:1009480007321A601A6842F040021A6008BD00BFF8
:100958000030014038B505460C46002204211046F7
:10096800FFF764FF074BDD60064B9B6813F0800FB1
:10097800FAD1044BDB682370012204210020FFF721
:1009880055FF38BD0030014008B5034BD868034B0C
:100998001B68C0B2984708BD003001401401002010
:1009A800074B00229A6058601A6842F001021A60E8
:1009B800034B1B6813F4803FFAD0014B1B68704748
:1009C80010E000E008B50A4B1B785BB9094B1A68C0
:1009D80022F002021A601A6822F001021A6000224C
:1009E8009A605A60044B1B689847024B1B6808BD05
:1009F8001C01002010E000E01801002008B50122C9
:100A080011460020FFF712FF6420FFF7C9FF0022FC
:100A180001211046FFF70AFF0120FFF7C1FF01225D
:100A280011460020FFF702FF6420FFF7B9FF0022FC
:100A380001211046FFF7FAFE6420FFF7B1FF0122FB
:100A480011460020FFF7F2FE0148FFF7A9FF08BD95
:100A5800C0D4010030B583B00546002002AC04F8CC
:100A6800010D01220221FFF7E1FE21462846FFF78A
:100A780071FF03B030BD30B583B00546002002AC2D
:100A880004F8010D02460221FFF7D0FE2146284650
:100A9800FFF760FF03B030BD38B505460C462A2085
:100AA800FFF7E9FF0020FFF7D5FF2846FFF7D2FF41
:100AB8000020FFF7CFFF2046FFF7CCFF38BD38B541
:100AC80005460C462B20FFF7D6FF0020FFF7C2FF94
:100AD8002846FFF7BFFF0020FFF7BCFF2046FFF7BF
:100AE800B9FF38BD08B5012211460020FFF72AFEDC
:100AF800012202210020FFF725FEFFF77FFF1120CA
:100B0800FFF7B9FF0648FFF74BFF3A20FFF7B3FF9F
:100B18000520FFF79FFF2920FFF7ADFF08BD00BFA5
:100B2800F049020038B505467F210020FFF7B4FFE1
:100B38009F210020FFF7C3FF2C20FFF79CFF002414
:100B48000AE035F81400000AFFF784FF15F81400CE
:100B5800FFF780FF0134A4B2B4F5A04FF1D338BD3C
:100B680008B5FFF7A3FE02210846FFF7B1FE0C21E6
:100B78000220FFF7ADFEFFF7D1FEFFF7B3FF08BD78
:100B880008B5FFF7EDFF0248FFF7CCFFFEE700BF0F
:100B980044150008014B1868704700BF200000206A
:100BA80030B5141E05469BB0184605DA8B234FF066
:100BB800FF302B601BB030BD4FF40273ADF80C3022
:100BC8000CBF234604F1FF33029305934FF6FF73DE
:100BD80000910491ADF80E3002461E9B69462846E6
:100BE80000F072F8431CBCBF8B232B60002CE1D0B3
:100BF8000022009B1A70DDE707B5009313460A46EA
:100C0800014603480068FFF7CBFF03B05DF804FB1B
:100C1800200000202DE9F0478E6882469E420C464F
:100C28009046994637D88A8912F4906F31D00223BA
:100C3800256809696F1A656905EB450595FBF3F5A4
:100C480009F101033B449D4238BF1D46530530D589
:100C5800294600F035FB064650B90C234FF0FF300B
:100C6800CAF80030A38943F04003A381BDE8F087A8
:100C78003A46216900F0B4FAA38923F4906343F05B
:100C88008003A38126613E4426604E466561ED1BC4
:100C9800A5604E4500D94E4632464146206800F0D0
:100CA800AAFAA36800209B1BA36023681E44266041
:100CB800DCE72A4600F05EFB06460028E2D12169FF
:100CC800504600F0B1FAC8E72DE9F04F9DB0039304
:100CD8008B8980461D060C4616460FD50B696BB9E5
:100CE800402100F0EDFA2060206128B90C23C8F8F3
:100CF80000304FF0FF30C7E04023636100230993C1
:100D080020238DF8293030234FF0010B8DF82A303D
:100D180037463D4615F8013B0BB1252B3ED1B7EBC5
:100D2800060A0BD05346324621464046FFF772FF6B
:100D3800013000F0A480099B534409933B78002BB1
:100D480000F09D8000234FF0FF32CDE90523049386
:100D580007938DF853301A932F46052217F8011B75
:100D68004F4800F02FFA049BD0B9D90644BF20227F
:100D78008DF853201A0744BF2B228DF853202A7868
:100D88002A2A15D02F4600200A25079A394611F835
:100D9800013B303B092B4DD9B8B10FE02F46B8E7DE
:100DA8003F4A3D46801A0BFA00F018430490D3E7F7
:100DB800039A111D12680391002A01DB079204E0CF
:100DC800524243F00203079204933B782E2B0CD136
:100DD8007B782A2B33D1039B02371A1D1B68039299
:100DE800002BB8BF4FF0FF3305932E4D03223978FF
:100DF800284600F0E7F938B14023401B03FA00F019
:100E0800049B0137034304933978062226487E1C45
:100E18008DF8281000F0D6F9002838D0234B13BBE2
:100E2800039B073323F0070308330393099B4B44C1
:100E380009936DE705FB023201200F46A6E7002360
:100E48000A25194601370593384610F8012B303A20
:100E5800092A03D9002BC8D00591C6E705FB012153
:100E680001230746F0E703AB00932246104B04A981
:100E78004046AFF30080B0F1FF3F8146D6D1A38949
:100E88005B063FF536AF09981DB0BDE8F08F03ABA0
:100E980000932246064B04A9404600F081F8EAE791
:100EA80044B500084AB500084EB500080000000027
:100EB8001D0C00082DE9F04791461F468A680B690A
:100EC80006469342B8BF1346C9F8003091F843204C
:100ED8000C46DDF8208012B10133C9F800302368D0
:100EE800990642BFD9F800300233C9F800302568A6
:100EF80015F0060507D104F1190AE368D9F80020AE
:100F08009B1AAB4229DC94F843302268003318BF9F
:100F1800012392062ED404F1430239463046C047D5
:100F2800013021D02368E56803F00603042B18BFBD
:100F38000025D9F800204FF0000908BFAD1AA368B2
:100F4800226908BF25EAE5759342C4BF9B1AED18CC
:100F58001A344D451AD1002008E00123524639467B
:100F68003046C047013003D14FF0FF30BDE8F0876D
:100F78000135C2E73020E11881F843005A1C94F883
:100F880045102244023382F84310C4E70123224665
:100F980039463046C0470130E6D009F10109D8E7A3
:100FA8002DE9F04301F1430C0C46097E85B06E290A
:100FB8001746064698460C9A00F0B38022D8632953
:100FC80036D00AD8002900F0B980582900F083806B
:100FD80004F1420584F8421032E0642901D06929FD
:100FE800F6D120681368050603F104012AD51B68A9
:100FF8001160002B03DA2D225B4284F843206F48EE
:101008000A2239E0732900F09D8008D86F2920D082
:101018007029DDD1236843F02003236003E075299C
:1010280017D07829D4D17823654884F8453055E01D
:10103800136804F14205191D1B68116084F84230D9
:1010480001238CE01B6810F0400F116018BF1BB221
:10105800CFE713682568181D1060280601D51B689E
:1010680002E06806FBD51B886F2914BF0A220822F4
:101078005248002184F843106568002DA560C0F22D
:101088009580216821F004012160002B3DD1002DBD
:1010980040F08E806546082A0BD12368DB0708D507
:1010A800236962689A42DEBF302305F8013C05F1E6
:1010B800FF35ACEB05032361CDF800803B4603AA5E
:1010C80021463046FFF7F6FE01304DD14FF0FF3094
:1010D80005B0BDE8F083394884F8451013682168E5
:1010E8001D1D1B6815600A060BD5CA0744BF41F0D1
:1010F800200121601BB9226822F020022260102200
:10110800B7E74D0648BF9BB2EFE76546B3FBF2F180
:1011180002FB1133C35C05F8013D0B460029F5D1EC
:10112800B9E713682568181D6169106028061B68EF
:1011380001D5196002E06A06FBD5198000236546CF
:101148002361B9E71368191D11601D6862680021E1
:10115800284600F037F808B1401B606063682361D7
:10116800002384F84330A7E723692A4639463046E6
:10117800C0470130AAD023689B0713D4E068039BBB
:101188009842B8BF1846A3E701234A463946304675
:10119800C04701309AD00135E368039A9B1AAB42E5
:1011A800F2DCEBE7002504F11909F5E7002BACD1D7
:1011B800037804F1420584F842306CE755B500081D
:1011C80066B5000810B5C9B202449042034601D181
:1011D800002303E01C7801308C42F6D1184610BD7C
:1011E80010B5431E0A44914200D110BD11F8014BBD
:1011F80003F8014FF7E7884210B501EB020307D85F
:10120800421E99420AD011F8014B02F8014FF8E743
:101218008342F5D98118D21AD34200D110BD13F8F0
:10122800014D01F8014DF7E738B50546002943D0CF
:1012380051F8043C0C1F002BB8BFE41800F0D0F89C
:101248001E4A1368104633B9636014602846BDE827
:10125800384000F0C6B8A3420BD9216862189342FF
:1012680001BF1A685B685218226063600460EDE78A
:1012780013465A680AB1A242FAD919685818A04206
:101288000BD120680144581882421960DED11068D9
:101298005268014419605A60D8E702D90C232B60C0
:1012A800D4E7206821188A4201BF116852680918DA
:1012B800216062605C60C9E738BD00BF2001002082
:1012C80070B5CD1C25F0030508350C2D38BF0C254D
:1012D800002D064601DBA94203D90C233360002008
:1012E80070BD00F07DF8214A1468214691B9204C60
:1012F80023681BB9304600F063F820602946304661
:1013080000F05EF8431C24D10C233046336000F013
:1013180068F8E4E70B685B1B18D40B2B0FD90B603C
:10132800CC18CD50304600F05CF804F10B00231DBA
:1013380020F00700C31AD3D05A42E250D0E74B68D6
:101348008C4216BF636013600C46EBE70C46496895
:10135800CCE7C41C24F00304A04205D0211A30466F
:1013680000F02EF80130CFD02560DBE72001002007
:1013780024010020F8B5074614460E4621B9BDE8F9
:10138800F8401146FFF79CBF22B9FFF74DFF2546ED
:101398002846F8BD00F026F8A0420FD2214638466C
:1013A800FFF78EFF05460028F2D031462246FFF7A8
:1013B80017FF31463846FFF737FFE9E73546E7E7D5
:1013C80038B50023054C054608462360FEF7D2FFD2
:1013D800431C02D1236803B12B6038BD28010020CB
:1013E8007047704751F8043C181F002BBCBF0B58BE
:1013F800C0187047537461636B206672616D653AFB
:101408000A000000205230203D2020253038580A9C
:1014180000000000205231203D2020253038580A95
:1014280000000000205232203D2020253038580A84
:1014380000000000205233203D2020253038580A73
:101448000000000020523132203D20253038580A53
:1014580000000000204C52203D2020253038580A3A
:1014680000000000205043203D2020253038580A35
:101478000000000020505352203D20253038580AE3
:10148800000000004653522F4641523A0A0000001D
:101498002043465352203D2020253038580A00006A
:1014A8002048465352203D2020253038580A000055
:1014B8002044465352203D2020253038580A000049
:1014C8002041465352203D2020253038580A00003C
:1014D800204D4D464152203D20253038580A000005
:1014E8002042464152203D2020253038580A00002D
:1014F8004D6973630A000000204C522F4558435F22
:1015080052455455524E3D20253038580A000000A7
:101518005B486172644661756C745D0A0000000086
:101528005B4275734661756C745D0A005B55736147
:1015380067654661756C745D0A000000A7A3247294
:10154800836164598361047A4359C369C361435110
:10155800C138456AA682679B457A4482A58AA58ACE
:10156800E692E5614341E469A58A04726582868A48
:10157800069BCD63B164137D188E388E388E388EF5
:10158800188618869675557555753575356D767541
:10159800137D137D7164505C305C2F642F6471641B
:1015A800967D967D137D925CCD63082A200882681B
:1015B800617062506258614841408260624882604E
:1015C800C360C8AB8BBC2472C9AB51E56ECCA348D1
:1015D80021384459466A0993D1D4CCA316DE1BF7A7
:1015E8001BF7E7416110E320C32003296539443123
:1015F8004431032917D69DFF9DFFFFFF79D682103E
:101608006539EE8B23296431C220EE939BFFE739BD
:101618000742EA6AA95A0A6B6B73EC8BAB93C792C1
:10162800C692A469057268A309B40793467AE5715E
:10163800257A85826582A582A8A3C78A657AC36947
:10164800A36963598361C371247AE4718582E46173
:1016580063516572269BE78A04726482257AC4699D
:10166800457AC68A4572C461047266828582A58AF3
:10167800C6926E8CB164337D188E388E388EF8859C
:101688001886F885B77576755575566D566D7675E5
:101698001375347D9164916450642F640F5C505CC1
:1016A8003475B67D547D706CAB7308222108615087
:1016B80061608250825882508258A3808370A378D8
:1016C8008360057AA8AB679B6DDDB5F6CAABC348E6
:1016D80001308559087BC88AD0CC4983CD93FBFE5D
:1016E800FAEE65318210E320C318032965394431C5
:1016F8002429A641FAF67CFFBDFFFFFF75B5C3207C
:1017080033B5909CE3206431C22070A419FF652989
:101718000842EA62EA62A95A4B7BEC8BCB93467A81
:10172800E4716682689BC9AB0AB4A68A6582658241
:1017380005720793079388A32793457AA369A3693A
:101748008359C469A369836144824482457AC47118
:10175800E369447A85820472658AC469E238234958
:101768004351C469858AC68A457A457A457A257A75
:10177800E7824E6CD16C547D188E398E398EF78580
:10178800967D9675967D967D5675366D976D7675B0
:101798001375F374B264D26C926C2F5CEE5B916C2F
:1017A800B26C7675D785906C6C5B4922A22041405B
:1017B8008258A360A360614805A183886268C388D2
:1017C800A3686248E35046726CC4D0DD2793C350C7
:1017D8000138476A4EAC86826DD50973443191ACA5
:1017E80058DE0421A218E320C3182429853944317E
:1017F800E320EA6A7DFF5BFFBDFFFFFF6D730752C1
:1018080057E60F8CE2286431C22032BDD5CDE410F2
:10181800484ACA62EA62885A4B73CC8BAB8B868281
:10182800689B0AB42AB409B4289B457AE692A58A2B
:10183800A68AA9A3A68A66820572A58AC369A36136
:10184800E3696482A469836185824482257A257A62
:1018580065824482257A8582648202492349A46983
:101868008359435164510472C592C692A58A458230
:1018780068938F74F174337DF78D598EF885757D73
:101888001365D264D36455759775566DB7757675BB
:10189800547DF374D26C136D3475757DF36CEF530E
:1018A8002F5C5575F87DB06C8C6BE8212010623880
:1018B8008258626082606258C49083784150A278EE
:1018C800C3708250213806722DC410DD8A9B824075
:1018D8000040488251CD6482ADC46FB4C649420805
:1018E800EB6A4429C218E320C318242985396531D5
:1018F800A2182F94BDFF7CFFDEFFFFFF694AC96A6B
:10190800F9F62B6B03296539C22074C50F8CC310F7
:10191800694A8952A95AA95A2A738B83CB8B0AB46C
:101928004ABC2AB4C9ABE792457AE78A489B457A0C
:101938008682C68AA68A6682E571267A0372247A26
:1019480044826482C4616361E46983614351635979
:10195800A461E569C68AE692247A056A42498361E8
:101968008361A461A46184610793C6928582858A94
:10197800CA9B2E6CD1741375D785398E398EF87D34
:101988009675F26C9164146D97753565B8757675B2
:101998001375D26C916CB08CF374347D5585F36CEF
:1019A80050649264D87DF18CAD63C8210008413839
:1019B80061506260A370A378415062608250826077
:1019C800A26882584240C8928ECCCFDC4A9B6240C3
:1019D8000150C68114D6677A4EC46FBC486A0008A5
:1019E8008110E320E320E320C218242985394531FA
:1019F800C32095C5BDFFBEFFBEFF318CC218A549E7
:101A0800D9EE685223318539A218D1ACCA5AC4100C
:101A1800083ACA62EA62A95A2A6BCC8BCB9369A3AB
:101A280088A3E78A457A657A079369A3C78A057206
:101A3800868A6682257A0672E569E669C4618361E9
:101A480003726482A461836123516351C369C369CA
:101A5800A3614359A4612572247A8582A682835999
:101A68006359046A056A2349667A4582247A858A15
:101A78008A9B2C94AD9C1375D77D398639865A8EEE
:101A88005A8E767DB164146D97753565B875977DF6
:101A9800F274B264916C11BD6F8C2D8453A537B666
:101AA800F88D7164D35CF18CAC6BE8290008C490A4
:101AB800826062588260415061508360A358A3607D
:101AC800A368416061484AA3F0DCEFDC067221405C
:101AD8004250C36073CD098B2DC470BC2B83612821
:101AE8008220C218C320E320C3202429653103299A
:101AF8006539DAEE9DFF1BEFE7418118E741A54103
:101B080099E6C64144318539A118CE8B0842E410C4
:101B1800E7396C732B6B89520A6B0D94EC9B8682A8
:101B280025828682E692279B88A30793257AE792E7
:101B3800667A846184618461667A868264516351BD
:101B48000372247A8459C3692349C369848A648ADD
:101B5800A592848AE371A36163598361257A667AC1
:101B68002672457AA46164516361047A848A248266
:101B7800298B8DACADB4127DB775398E398639860F
:101B88003A86F87DB26CF46C77757665B875D88549
:101B9800F36C9164CAA42EADB0AC2E74D27C51C53E
:101BA8009495399E5575B17C8C7B0822412025B9C6
:101BB800C378A2606258625082508358A368C37089
:101BC800C3702150C248ECBBF0DCEFDC64612140FB
:101BD80082480138897A4A930DBCD0CC0EA40441BE
:101BE8002130C228C218E320E320042924318218B6
:101BF800AA629EFF7DFFFAEE65290E9458D6CB5A4D
:101C0800D6CD443164398539A1184C7BA6310419E5
:101C1800694A4B6B4B6BA95A0A6B0D942D9C499BD7
:101C280048A3499B079BE7928682E469E469457A61
:101C3800457AE78AA58A47A38CC4E9B3A561247AC3
:101C4800247AA461A3612472457A2251247AA3617B
:101C5800E469C592848AC592858A247AC469A36195
:101C6800A469A46143518459257A858A858AC371F8
:101C780047724D9CAAA3AF8CB775398639863986C9
:101C88005A86D87DB264D36C7775976DB775D88549
:101C9800D364506444B4288C32AD14DE104C4F8C9D
:101CA800B094D6AD398ED36C908C2922822005B998
:101CB800A3708268836082506250A3588268A370C0
:101CC800C470624044614DC4F0D48ECC035162406C
:101CD80082584158014085612DC4F0CC8FB4E75932
:101CE8002130A348C320C320E320032924296110FD
:101CF800509CDFFFD7C59CFFDAE6DAEE7CFFD49C68
:101D080012B5643164316431A218A9622521A63163
:101D1800694A0B6B4B73A95A2A734D9C4DA4878251
:101D28004582457A657AA68A458288A3E9B3059BE8
:101D38002AB48BC426A3A8ABC9A36582A461247A5C
:101D4800A361A461A361858267A3457A23514351A6
:101D580083594482047A247A457A447A8582658252
:101D68000472A4616359467A6582C59245822572D8
:101D7800256AEC8B889B118DD775198619863A864A
:101D8800197E91747164F464776DB8757675977D72
:101D98003575B25CCA7B4D7C72C530CD52B573AD1A
:101DA800F37CB08CD78DB4BDCD83282A611826B1B9
:101DB80083706268625862506150A378626882607A
:101DC800E4706248C6714DC4CFD42CC4C35062407D
:101DD8004158416821486240CCB3D0CC6FBCCA7A24
:101DE8006348C450C338C218C320E3200329A22083
:101DF80058DEB7BD719CFFFFDEFFDEFF1AF758D62D
:101E080036DE232944314431E2206539E418C739E4
:101E180028428C7B6C7B89522B6B4D9C4DA4EAA38A
:101E280068A3069B8BBC2ABC26A36BBCC9ABA58A3E
:101E3800E78A667AC469A4618459C561C461A469E2
:101E4800A369C369457A469B279B657A6459635998
:101E58008361A461A469C469C469C469A46163593C
:101E68008361A469257A4582A68AA592047A467A6E
:101E7800A4610CA40BA4547DF87DF885197ED77D48
:101E8800ED93088BAE531565976D976DD885556D95
:101E9800978D96A5155D154D52ADADC4F5CD547D04
:101EA800B154556D4F7431ADC772E7298210A370D4
:101EB80082706268826061506258A390827062602A
:101EC800C3686250678A6ECCCFD4EBBBC350424024
:101ED80041584168414862404AA38FCC6FBC6C931B
:101EE800824883484138A220C318A2188118C641E5
:101EF8001CEFE741D6C5FFFFFFFF78E657E6FEFF78
:101F080077E6032944312329E320C218E418662917
:101F1800694A6C734B7369520A634D9C6EA4CCC4B6
:101F2800A8ABE69A489B8682E571E569A461C5611C
:101F3800E5692672677AA88AE9920A93A469C3694F
:101F48002472C58A47A30693A4694351835904722E
:101F58006582648A858A858A858A858A858A658272
:101F68006582E471E471047A047A868A467A067294
:101F78008361EAA3EFA4967DF87DF885F8759084CF
:101F8800C69A29A3E88AAE5B5765B875D885567591
:101F9800147DD5D5F78D574D53A591CD7595155D04
:101FA800298C3465F454338D8B7B4922621841386F
:101FB8008260A2688258A2588258627882886260D9
:101FC80083604258E9A2AED4EFDCECBB82484240C1
:101FD8004150626841482138A88A6ECC4FBCCDA3D5
:101FE8000449624841406138C320A2180008EF8BB9
:101FF800929C8210FBEEFFFF1BF70BB4B4D5FFFFDA
:1020080037D6C2202329E3200321C318C318C739B0
:10201800AA524B6B6C7B6952EA624E9C6EAC46725C
:102028008461C569A569C56905722672C98AC88AA5
:10203800467A2672E569C56926728782A361C369F3
:10204800C68A479B269BC4694359C369858AA5925A
:10205800457AE47104720572667AA461A461247AEF
:10206800868A658A868A047AA4696682C569445123
:10207800A371AA8B1185B685D77DF87D766D4E9CA8
:102088004DC4CBAB49AB6682F04BD96D1465156D69
:10209800146551B5347D925C717452B5748D17C650
:1020A800749DF44417A6D5B50E740C3382204130C4
:1020B8006258C478C380A358C36082608268A360F2
:1020C800267982504AA3AED4CFDC2CC4A250424019
:1020D80041484168E46062486782AFCC6FC42EB45F
:1020E800C669424883486258A330E318401055B582
:1020F80066310842DFFF9DFF70DD6BCCF0CCFEFF40
:10210800D6CDA2180329E3200329A210E418C73961
:10211800CA5AED83CD836952AA624E9C6EA4A882E6
:10212800C88AE9922682458A4582467A267A0572C5
:102138000572257AA68A4582A4698359457A24724C
:10214800C469E47105724351C469C592648AE4693B
:10215800056AE569A461667A46720472457A458221
:102168002582457A257A658A8682C469E471467A29
:10217800047ACB83F1747585D87D19762F74AAB348
:102188000CB48BAB4CCC2CD4C78A156D566DD3646C
:10219800146DF374D09C3074D354555DD5B536EEB8
:1021A800F78DB58593C576E68F9C2C3B0421214895
:1021B800C380A3808278C4888368E4708358A36846
:1021C8002581E358CBB3CFD4AED42CC4C3508350AD
:1021D800A35821606669A3584782AFCC90C48FBCCE
:1021E800687A41408240A378E48082106531D3A4A4
:1021F800410859D6DFFF92D5CDD4ECDCCDCC7BFF9E
:1022080054B54110C3200329E3208210E418873114
:102218002B634E94CD838952CA628EA48EA42672F3
:102228000572467A247AA58A4582A461868A489BE3
:10223800E569E5696682E792257AC4690693E692BC
:102248008582E47163598359848A848A84594672E1
:10225800057226720672C469247AC5926582E47191
:10226800C469E471C469E471858AC6920472457AC6
:1022780025822A7B1275347D1976917C69A3AAABD5
:10228800AAABADD4EEE44AB349BBEA72B35CF46CD2
:1022980014657244339D338D355D128532A5D4DDC6
:1022A800B68556D6F19CF0B452BD6D4BC31041486B
:1022B8008378827062608380A370E478E480A3806E
:1022C800A4782469ECBBAED4AFDC4DCC0461825059
:1022D80082508250625021486882AFCC6FC48FBC54
:1022E800C98242506250A378837861308A528A52F8
:1022F8004D6BFFFF93D54CC430DDCCD4ECDC39FFFB
:10230800508C0008C320C320C318A310C418462942
:102318000B634E940E8CCA5A0A6B8EA48EAC289B03
:102328004582A4616582C6920572C469E9B3C68A0A
:10233800C469257AE571267A8782667AC792C68A41
:102348000693C692E4696359858A047AC461057262
:102358008682878AE569E471C59A04728359E471B3
:10236800E79287820572E569A469858AE692047214
:1023780024822983547D33753A766F8468B3EABB27
:102388000EE50FED6BAB6782089B4261EB52F4647C
:102398009364149D32B512AD723CB17C8EAC72BDA3
:1023A80094AD93C512A5B09CD0A4CE63C310614868
:1023B8008270A27082606268A368E498E490C4980E
:1023C800836844690CC48ED48ED46DCC4461636830
:1023D800C3606248625041404782AFCC6EC42EBC95
:1023E8000A8B83588380414841484148F4BC0842DD
:1023F8005ACE16DE0BB4D3ED55FEF2F5ABD4B6FECD
:102408002C6B0008634184518208A310C318662905
:102418002C6B2E940E8CEA620A638EA4AEACEAABE7
:10242800079B6359E79248ABC461A469E79AA68AF7
:102438000572267A67828782A78A09932572257A88
:10244800A682C68A04728359848A247AC561668200
:10245800069B6682A4614582858A8359047268A3B3
:10246800C792A46123496359A469E471C592858A16
:10247800A369667A757D54755575AC8B89B3CDD4CF
:10248800B1F5CCC3C99249A3ABAB4A9B265A4D3B85
:102498000C438E7BAFA411B5B4AD7154ADB415CE59
:1024A800F2DDF0A44E9492BD6E9CEA5AE418625094
:1024B8008278A370A36083608360A388826862685F
:1024C800425885712CC44DCC4DD42CCCA579C5A0CF
:1024D800A3606240415842484782AFCC6EC40DB4F5
:1024E800098BA250E5984138826021604DA3D7BD81
:1024F800D6CD69A3EFD455FE95FE74FE6FED2EDDA3
:10250800C739C220A369A4518308A310C31087291F
:102518000B630E8C4E942B6B0A6BAFACAEAC48932E
:10252800E471E469E69AC68AC461A469E569267A11
:10253800A8820A93E569477AA8820672658286822C
:10254800457A6682E792A361E371658AC569467A2E
:10255800E6928682C4696482247AA4614572E56938
:10256800E5694351645943590572457A037AA6923D
:10257800A369457A547DB76DED8307A32BBC2FE57E
:1025880050ED2AA34AAB89BBABAB0CBCECABEC322D
:102598000C338F33138D96E677E6F37C6F9472CD08
:1025A800CFC4949DB5ADB3BDF0A44A83253141484D
:1025B80082782589A368C470C47883708260A36810
:1025C8008378C6812CC4EBC30CC40BCC279A8488AF
:1025D8006248625062506248888A8ECC0DBCCCAB8F
:1025E8000993C3486250614082602150866179DE58
:1025F800ABA3EBB3F3ED35FE55FE33FEF2F50EE576
:1026080084412429E69A23318308A310C31845215D
:10261800EB620E8CED8BCA5AEA62AFACCFAC467255
:10262800A361C4592572E5694682878AEA920A93AA
:102638000A930A9B67822672677A677AA692A58AA6
:10264800A68AA68AA68A85828361658A047A057223
:10265800C692868AE56964826482C46986828459DE
:10266800257AA46984614359846105720472E69AE3
:102678008461A682137DF975B27469AB4BCC8FE582
:10268800CEDCC9920BC40EED0DBC8ECC6F9CF43C15
:1026980010444C5BF5CD39F797EE94ADB68D71CDFE
:1026A800CEC4D4B552BDF0AC31AD0E8C453101402D
:1026B80062680591C480A368C498A370A37082500F
:1026C8008388C699EBB3ABBBCBBBEBCB0682214867
:1026D800C360C3606250015088924DC4CCB36AA3F2
:1026E800E88AE3506248C35861582140C36871BC06
:1026F800499B31DDF3EDD3ED72E591EDD2F5D1FDD6
:10270800699B8218C79A43398308A310C310041918
:10271800CA5ACE834B6B484AAA5A8EA4EFB4A882F1
:10272800A692868A868A8792C892EA920A93E99242
:10273800C98A68822772066AE5690572858AA58A48
:10274800858AE69AA682C78A257AA369858A257228
:10275800257A4682056A257AC592A469A68AC4693B
:102768006682E471A369A461A469A469858A458223
:10277800846188A3127D565D716CCABBACCCD1ED67
:10278800CBBB49AB2EEDEEE4F0DCB2FDB184563D97
:10279800755D8E434DAC16D637D635DE93B571C50B
:1027A800B3CDF4D571C56E9CD0A4CC830419002098
:1027B800A3680491C4888368A380E478E478E47803
:1027C80063708591CBB38AB36AB3AAC3478A625050
:1027D8000569C360A3600158478A2DC4ABB3099B40
:1027E800A882246163488268A37061406278279256
:1027F8006DBCB3EDF3E531E512FD8FECB1ED13FEE1
:10280800CDDCC220868A44318308A310A3100419A2
:102818000842AA5AAA52C73928426E9CEFB40A8BBA
:10282800888A868A668A477A277A267A057205729E
:10283800E471457AA6828582A9A34BBCC469458206
:102848008592858AE692667AE7920472E4716582D7
:10285800458224720472648AA592846186822572F4
:10286800846186826582C469C469047A047A836152
:10287800A68AC9ABB16CB08C498B4CCC0EDD2FDD70
:10288800CAB3EDDC0FEDAED430E592F5346D555595
:10289800B344353D6F8C2E9C2F9436DE36D673ADFF
:1028A80056DE17AEF0AC6DA4D19450846511C358B0
:1028B8008370C498E498A368A37026A1C48026B93D
:1028C800835824716AAB8AB3EBBBCBBB879262583F
:1028D8006258C48083682148A571ABB3ABB36BA3BE
:1028E800C88A035142608378837062482170068ADF
:1028F80051DD14F6B2E50EDC0EEC6FE4D2ED34FED9
:10290800B0FD4339667A44318308A310A31004212B
:1029180066292842AA52083A0742AC83CFACA87A63
:10292800C46905722572457A2893C68A689B0AACE1
:1029380047A32AB4E9B3E69A689BA68A057AE471A4
:10294800E471A46907938682E792667AA369A3690A
:102958004582648AC592C592447A846166826359C5
:10296800457A47A3C6920472A369E471868268A374
:10297800E9B3C8AB707C50CDCAB3CDD40EDD0EDD43
:102988004FE58FF511DD51DD70F572D53635966559
:10299800B33CB334F36CAD7B13B535E635D6949DB3
:1029A800F49D766D749533A5908CCF4B2421C498F3
:1029B800C4888380C498A368A370C4A08270A390BD
:1029C800A368C46029A3CBBB0CC40CC429A325A14C
:1029D800A480C470627862484459CCBBECBB0DB487
:1029E8004A932459A490625841488258016009A327
:1029F80092E514F6F3ED31E5B3F554FE74FE75FE79
:102A0800F2FDCAABC88AC318A308A310C318E418F8
:102A18002521E839E839A631E7398C834E94699342
:102A280006A36BC4A8B3A8AB4BBCE692289BE78A65
:102A38000572E569C461C469E471E569668A45821D
:102A4800457AA68A0793657AC78AC469247A247A5C
:102A5800C4690472E471E471C469657A0572C46971
:102A6800279B257A4582858A658265826582A6923A
:102A7800E69AC692AD63ED936DC42EDD0EE52EE5A4
:102A880090F54FED0FDD0FDD4EF5B4BD764D1455C5
:102A9800B65D54857655B35C0E7C35E6F6B552A521
:102AA8002CA5D5ADD6A5CF848F9C2D336529E48080
:102AB8006268C380E498A368C470A380A37082602E
:102AC800C470C468E8928AB36DD44DCCCAB386A9E1
:102AD800E5A082486268424847826ECC0DC40DC4A6
:102AE8004A9B0351A4886248826882600030CCAB5C
:102AF800B2ED55FE55FE55F696FE55FE74FEB6FE31
:102B080012FE31FEEBAB2100C310A310C310C31893
:102B180005218629C731C731C7390B6B4E94498BBC
:102B2800A68AA78A0472E571C469C469E471257A22
:102B38006682A68AE792E792A68A6682A68AA68A0B
:102B4800E68A0693657A8682247A8361E371047241
:102B58000572E4698361E471257A057283610793DC
:102B6800C68A05724582C692C792C692C692A68A3E
:102B7800858A858AEA428D7B4FE54FE52EED4EED3D
:102B88002EE5CEDC70ED50E58CDC2E6C7655965536
:102B9800D69D7CFF9765D74D9244129D56E6949D2D
:102BA800119DB8E656DEECACAFA4EC42C721255126
:102BB80041680479E478A3688368A3708360C4706B
:102BC80046B9C468C8920CC4F0EC8EDC2CC4A58944
:102BD800A490A360C4608368ABB3CFD44DCC6ECC53
:102BE8000DB4245962506240A3780050C1488EC485
:102BF800D3ED96FE75FED3E593E592ED54FEB6FE51
:102C080053FE11FEAB9B4200C310A210C310E41880
:102C18002521A731E839C739E8418952AC7BE87AE0
:102C2800057A4582A68AC792E792C792A68A667AEB
:102C3800056AA4594349E338A2288220C36904726B
:102C48000472C3716582047A8369457A257A84613E
:102C5800E469C46965820472E469E571257A0793B9
:102C68006682C569E471858A6582056A057246824D
:102C7800868265826D3B0F5C13EED1F56EED4EE5F5
:102C88006CCC2FE590F590EDEAC32A6BF35CF34426
:102C98001796DEFF7585B745755D6D439084F5BD64
:102CA80037CED9EEF5CD11ADF1AC8A4A451182582F
:102CB8006260E470E4786270C388A370A3602589B9
:102CC80047C9E5682A9BAEDC51F5EFE46DD4278A45
:102CD8008360C470836062584DC4F0DC8ECC8FCCA6
:102CE8008FCCC6816258A3684150267ACCAB8EC47B
:102CF800F4F596FE75FE50E5F4F512FE53FEB5FEAA
:102D080073FE31FECB9B2100A310A310C318E41857
:102D180005218629C731A7310842484A0B6BC97A71
:102D280045822572A45943512341C338A2288220E1
:102D380082208120A228E230234183518582868225
:102D480025728361E4710472457AE692A68A047A50
:102D58006582247A247AA68A6582858A257A8359A7
:102D6800667A6682047A4582457AA3616359047259
:102D78004482C68A515C3535F0946EFD6EED4BCCBD
:102D88006CD42FE52FD511B591740D8CD194F334F3
:102D9800565DB5B5547DB755D75DB35CCF4BF19C47
:102DA80077E616CED4CD72B5105C28428639215804
:102DB80062488258269967D1E490C478A378E47071
:102DC800A47066696AAB0FE551F530EDCEDC889AE0
:102DD800A468E570A46882506ECC31E5F0DCD0D4EC
:102DE8008EC4A9BA6370A38020486EC471DDAECCCE
:102DF800F4FD75FE96FE70EDD2F532FE53FE73FEBD
:102E080053FE11FECEC44100A310A310A310C31893
:102E1800E41804216629C73108426952CA62853913
:102E28002018612081208228C23023418351E46127
:102E380025728582C68A079B279B46A3479B858266
:102E4800A58A657A6359A68AE6922482848AA5921D
:102E5800858A65826582257A0572457AE792668257
:102E680045824582E471047A6482479B069BE9B3F4
:102E780005A32883EF43754DF44C8E94E9BB2BC40E
:102E8800ED8B138DB695F885D6A5B4C5B5B5B184C7
:102E9800756DB65DD665D755D755965DD36C0E74EE
:102EA80093CDB4CD90AC129D30544842E739E458E4
:102EB800427062680599A8E9C480E590E598A3582E
:102EC8006258C4688BB310E572F571F50FE5A99ADD
:102ED8008480E5A82681C4600DBC31E531DDF1DCD4
:102EE8008FC468A22260C48800586EC4AEC4EFD4F0
:102EF80013FE54FE75FEF3F5B1F511FE32FE33FEF6
:102F080033FED0F590EDE6412100A310A310C318BD
:102F180004196529C739083A284269526952C551C6
:102F2800C4612572857AC68A279B47A367AB67ABBE
:102F380067AB67AB47A3279B069B05932693A58A98
:102F48000472E68A8682257A858A4582A58AA58AB8
:102F5800E471867A0572A4698461A461C369658293
:102F68004482279BE69AE9B3069B279B247AE4715F
:102F7800A3692B4B10347565754DB23CAD6335852F
:102F8800564D179E15C636C656D6B8E616B6B8EECE
:102F98003395D755185EF75DD755D755F75555551D
:102FA800F194D0BCD1AC6F8C4F7C69422832654912
:102FB80042706270E49005B98370C488A480A368E5
:102FC8008368C4686BAB10ED51F571ED2FE5E9A28C
:102FD8008488A498A468A6792DBC11DD31DD11DDA3
:102FE800AFC4278A21504250826011D54DBC10DDF4
:102FF80034FE34FE55FED2F5F2F511FE13FEB3F59C
:1030080050EDD0F58FF5CC9B2100A210A310C31072
:10301800E41845218631C739284289522842E78A6F
:1030280087B367AB67A367A367A347A347A346A371
:1030380046A347A3069BC592E592E692A58A858298
:10304800047AE471247A457A447A6582E4712472B8
:10305800E569A461A369657A858247A3E69AA8AB66
:10306800069BE6924582E471A4618361E471267A45
:1030780088827164D344F354D76D9154725CF96DAE
:10308800D69D37A6F5AD16B6AFA436C636CEB7EE82
:1030980094C5756D185EF75DF75DF75DF85DD755FA
:1030A80051548FA4B0A40D8C2E848619473208621F
:1030B80063788258E4808388C47883608360A480BE
:1030C800838805616BABF0E451ED51ED30E54AAB17
:1030D800A4786268C470488AAECC11DD31DD31DD78
:1030E800AFC4C67901484150E368B5DD2DBC50DD59
:1030F800F3F5D4ED36F6D3EDB1F532FE92DD6C93EF
:10310800CFCC6FED6CCCADD40321C3102429C318E8
:10311800042145296629C7390842284A2842E68AEF
:1031280026A326A3269B47A3469B47A346A346A3BD
:10313800269B069B069B06930693E692C369248208
:10314800E471A461A461A3616359C369E371447A1A
:103158008582269B47A326A3069B6582257AC36999
:10316800C469A461E569067A4782A792257A8369CA
:10317800C97AD274D08C754D9254EF53D35CD87DF4
:1031880017A6179E78B6398E6D9CB7DE97D6B3D53D
:1031980033BDB5ADD665186618663866185E185E14
:1031A800923C2F74F4CDB09CCD7BE300EA4AE75102
:1031B8004158A358E478A370C470E470A36805A1CB
:1031C800C4A0C460ABABF0DC72ED72ED30E5ABB31C
:1031D80005792681C5708892CFD431DD72E532DD5C
:1031E800AFC4C57921482150078211CD8AAB91E53A
:1031F80092E5CDB390BCF4EDF2F573FE8FBCA65109
:103208002EAC6FF5CAB3A459C21841082429442921
:10321800032145298631C7390842284A0842E68AE7
:10322800059B069B269B279B269B269B269B269BCE
:103238000693069B069BE5920593069B6259E471EB
:10324800836163590472447AC58AC59267A3E59A73
:103258000693247A257A8361A461A469A369E57138
:10326800467AC469E4710472057A057AE479C3710F
:10327800E962128591C5964D0F4C8E4B1465D77D2A
:103288005A865A9E57BE5A7EB8D65AFF18EF15DE90
:10329800D2AC56DED685185E58663866185E185E5B
:1032A800D755145D52AD11AD29734411A942C731E8
:1032B80041408258C370C370A368C488C490C47066
:1032C800A4882571CCAB11DD93ED93ED51E52CC4A9
:1032D8002579E578E570E99ACFD451E593ED52DD8B
:1032E800D0CC067221404270C99AD0CC299B91E576
:1032F80011D5CA7AAA72B3DD34F674FE0FD5CDA300
:103308000DB40DE50AB44010000041086531C6410E
:103318004429E3206629A7310842484A284AE69208
:1033280026A3269B069B269B269B069B069B05930E
:103338000693E592E592069B269B479B8582447AF5
:10334800C68AC592269BA58A85820472C469836150
:103358008359C561836183612572E471A371048215
:103368006361247A858AC371257AE479C369C3794C
:10337800EA62F27CD09C765DF3840F74756DB58536
:10338800398EBC9EDC9EBC8EF9DEF9E61AD734E68F
:1033980093CD18FFD695D65D586E3866385E185EA0
:1033A800F85DB75D2F640E84AD7BC7212B5B0832B7
:1033B80062406260A370E478C4686270A390C468D5
:1033C800A36846798BA3EEBB53E5D4F551ED8ECCBB
:1033D8004579016042502A9BCFD452DD93E532DD16
:1033E800B0C4067A014822700AA38B9BA77A71E5BC
:1033F800D0CC6B93CDA351D534F675FEEFD40DB474
:103408000CBC8EF52793C22021002008C218074261
:10341800E741E3202521C7310842494A074A069B6C
:1034280026A3059B059B269B059B269B269B269BE7
:10343800069B05930693269B269B469BC592A58AC9
:10344800247A04726261A461C461E569E47104725A
:10345800457A467A8359C369A3698582E371E47121
:103468006582C369A68A247AC369E5716782E481A3
:103478002B63556D1375D75D916CEE6B966DD2C548
:10348800179EBC96FCA6BC8678B699AEFACE76E6B0
:1034980054DED7E6F6959655586E586E3866185E1F
:1034A800185EF855145DCE732B6B04096C63282ADB
:1034B80082208368C4800599A3686278E5A8C468F7
:1034C800C5784579EDB30DC4CCB390CC72E5EFD493
:1034D8004471A35864514B9BB5DD37E6D5E573D5E8
:1034E80094D54C93E448424809A3A551056A50DD98
:1034F8004DC44EBC4EB48EC434F6D6FE13F650DD21
:10350800F2F5AFFDE461C228C31041086110C73964
:10351800E741443103216629C73928424852269B8E
:1035280026A3269B269B069B269B46A346A346A32B
:10353800269B269B2693269B269B469B846184611B
:10354800A461E5692472E471257A6682458202499C
:10355800247AC469A469247A8361257AC68A2251A7
:103568004482047A6359E4690572A88A6782E47917
:10357800CE73B65DF75DF755D26C0F54B76D6D9C81
:10358800F69DDC96BC969A9EF8EED9D6B8D656CE5D
:1035980076E658A6589E16A638665866386638667F
:1035A800185EF855F86D6C5385296519EA4A272A7B
:1035B80082286248E4700599836805A1E488E56873
:1035C800E5A025790DB4F1DC6BAB4AAB2DC48ECCEC
:1035D800CD9B4F9CD1B495CD78E637E616E616DE3E
:1035E80017DEF6D513AD91A470AC644102394DC411
:1035F80050E56EC42DB4B3E576FEB6FEB6FEB5FE54
:1036080072FE0ABC0249233925218210611024293F
:10361800C64185392329042166296629E64946AB2E
:10362800269B269B059BE592269B46A367A347A35B
:10363800269B269B479B269B269B47A3A461C46980
:10364800E471E571047283618359047245820472DE
:10365800668AA46183610572E471E471047AC469BD
:10366800C469E46904724582888AA88A888A26829D
:10367800715CF74DF75DF75591745064966DB6859A
:103688005996BC9E7A8677BEF1F556DE4DA5D3B520
:10369800B8DE78A69A8E74F6168659665866386625
:1036A800185EF85D185E14654511E631883A893A66
:1036B8004148625805710589A378E5A083680579B2
:1036C800E5A0E5810BB44BA3CCB3AFCCEBBB6AABA5
:1036D800B5CDB5C5F6D578E698EE78EE98EE98EEC5
:1036E80078E6F6D5B5CDF6D5F2B44762C651E571A0
:1036F800ADD433FE75FE76FE96FE96FE95FE74FEFC
:1037080010FE489B6449C54904216208C218653106
:10371800AA5A074A44310329A631A7318631256AB6
:1037280046A3059BE59A47A387A367A367A346A378
:10373800479B479B67A346A347A347A34259457A9C
:10374800C369C369C4698361E471E4714582868A87
:103758008682457A8461267A0572267AA88AA88A9A
:1037680067824682057AE571E571057AC479667AD9
:10377800B34C1445175E175E505C925CB675F77DC6
:1037880039967A8ED8C614DEECCC55D636AEF8E625
:10379800DB96999E579655DE15B638665866386694
:1037A800385E185EF855F865EF5323216411C94A4D
:1037B80007726270A370C470E470A368C470468115
:1037C80046892DBCAECC6BA38ECCCFD46DCCEBBBD5
:1037D80090BCF7CD16D6DAF6D9F6DAF6B9F698EE41
:1037E80098EE16DEF6D5F7D533BD6349E65906627D
:1037F80087822FDDB2ED75FE96FEB6FE95FE53FE6E
:10380800AFF589A3A551E551452961082329C6418A
:10381800484A274A032944312429A7396529A3108E
:10382800E56187AB67A367AB67A387A387A346A3B5
:1038380046A367A367A347A346A367A3C371C36946
:103848000472C3696259E5690572C5698461A78212
:10385800457A868A8882067205720672277AE57129
:10386800C571E4712472A58AE69227A3E6A2AB8B00
:10387800765D7555D655D755514CD35C756D187E08
:1038880015B658AE398637AE55D6F8E63BDF3AF767
:10389800FCBE789E10B677CE92C594757966386668
:1038A8003866185EF85DD855B75D482A8100072A42
:1038B800484282706270C470C468C468E470E5707D
:1038C800C8898ECC8AAB2DC451E5F0DC8ED44DCCA2
:1038D8000CBC91B40E9C16DEFAF6DAF6B9EEB8F620
:1038E800B8EE57E617D658DE74C543492341E65962
:1038F80006620CB4CFD434FEB7FED6FEB5FE53FE36
:103908008FF58AA3A459A44945298210E320A53933
:10391800A639C6418439443124296531242104213A
:10392800E320857AA7B387AB67A387A387A347A3B9
:1039380067A388AB87AB67A387A387A3E37182617B
:103948004251C3690572668205722672C461677A3C
:103958006782267AE569E471E4710472447A858A9B
:10396800279B269B68A3A58A65820472A2716C6353
:10397800D765D755B65DF34C304CB25C2F64F78DE4
:1039880037AE58AE9B86BB9EF9DED9CEF9DEF9EE8E
:10399800B9D635AE908D9A9EF3D593A51866586E14
:1039A8003866385E185ED755B755CF43A210441114
:1039B800E32862588260E470C368C470A3686358DF
:1039C800E568E992CCB3F0DC51E530E510DD6ECC6A
:1039D8002CC4ECBB4A9BB0B4B9EEFBF6D9F6D9F6C9
:1039E800B9EE78E637DE58E6D6CD2339C1308449BA
:1039F800E6598AA38EC434F6F8FED6FE94FE53FE2A
:103A08006FED667242496449E42062104108E32080
:103A1800A639E6492652643944314431E318442929
:103A2800E639844987B387AB87AB87AB67AB87A396
:103A3800A8AB87AB87AB87AB87ABA7ABC469C469B7
:103A4800E469E471267A267A0572C469C469C4698E
:103A5800E469657A8582069B0693269BA58A8682F9
:103A6800247A0472E471047A257A257AE3792F6C32
:103A7800B65DF755D665B24C915CD2849084F5B5A5
:103A880057AE15C6D9D6DD7EF6A57A96B9B696E6AE
:103A980036C677C6F8755A9675D6B2CD9485386607
:103AA8003866385E185EF855D755AE43C318030913
:103AB800E3406258C460E470E490C470C4806378E2
:103AC8006569CBB36BA3AFD451E531DDF0DCCFD45E
:103AD800AECC6DCC4DC490B4B0C453D537E6DAF64D
:103AE800FAF698E658DE78DE37DE64398020233926
:103AF800065A8682EABB92E552D555FE54FE6DCC35
:103B0800089B845142516449E42062206110C21824
:103B180044292429A541C54943398539C2180421B6
:103B280027520329C68AC8B387AB88AB87ABA8AB33
:103B380087AB87AB87AB87ABA8ABA7ABC569C569B4
:103B480063618359A361C46924726482C58AE69259
:103B5800269B858286820472E469E471E471047AA2
:103B6800257A257AE47183590241A2306128B2543A
:103B7800B665D75DF765B244924CD084ADBC93ADC1
:103B880056CE35D6B8E6DC8E6F7CD6ADF9E6D9CE02
:103B98003AF77AFF58AE1896F4BD14CE15C6D56D0F
:103BA8003866385E185E185EF855314CC6298509A6
:103BB800C3406248C458C4608360C468E588E58827
:103BC800888ACCB3ACAB10E551E530DD10DD0FDDF4
:103BD800EFDCAED4AED4B0BC4DC48DCCCFD4D5DDE3
:103BE80017DE79DE78DE58DE99E6686281202339AF
:103BF8004341057269AB48A30CBCCFD40CBC4572D9
:103C080023412249214985490429823082106108CB
:103C18002429EA62843984414339A541E318821092
:103C2800074A0329E461C7BB87ABA7ABA7ABA7AB20
:103C380087ABA8ABA8ABA8ABA8ABA8AB046A0472C7
:103C4800A58AC58AC58A85826482647A0472E47109
:103C5800C469C469E471257A0572A461635103419A
:103C6800C23081288120A12802416251046A755D11
:103C7800965DB65DF75DB24CF354F08C8BBCD3B552
:103C8800589E97D678C698C636B6BAB61BD73AF7AE
:103C98003AF739F7D7F677BE589EB67D8E84919558
:103CA800186E3866385E185EF855354DE7294411A8
:103CB80003292140A3508360A360C468C4600972CB
:103CC800277A0993D0DC92F572ED51E531E530E5BC
:103CD80010E5EFDCAEDCB0C48ECC4CCCEFDC50DDB4
:103CE8006BAB4DA399DE99DEFBEE2B83C228C23065
:103CF80002412572257AE79AAECC2A93A459E75156
:103D08002339A35962516549E3308238621820008B
:103D1800AC7B56EE8C7BE22843396431E318A21061
:103D2800C5410331033967A3C8B3A7ABC8ABA8AB78
:103D3800A8ABA8ABA8ABA8ABA8ABA8ABA58A447A9C
:103D48000472A369A369C369E471E471E471E4715D
:103D5800A46183510241A23061206120C130224117
:103D68006351C361447AC592E59AE4A2689B96556B
:103D7800344DB65DF75DB344136573A550BD31A5E9
:103D8800F69D78B676D6B6EED7EE19E73AEF5AF73B
:103D980018F7F8EE96EE55DEF5ADD4ADF18CF1845A
:103DA8005475F85D385E185EF855B755E729E3088D
:103DB800A218416882588360A368A779CA7A496AB9
:103DC800887A8AAB11ED92F571F5B2ED92ED71ED4D
:103DD80092ED71ED0FE511CDEED44CCC6DCC30DD0C
:103DE8008ECC22786EA31CE71CEF2B7B8128E23057
:103DF800E238667AE4698782877AC6512331653169
:103E0800C228835983512451A34083504120A230B2
:103E1800698228AAED9BE2202341E440E3180321AC
:103E2800E6490231A220867A08BCA8ABC8ABC8AB69
:103E3800A8ABA8ABA8ABA8ABC8ABA8ABA369C36930
:103E4800A369C369A46163510241A2308128A128F2
:103E5800A128C13022416351E4696482A492C59AC1
:103E6800E59AE59A059B059BE59AA39A8A83B75537
:103E7800D24CF765D75DB24C3465B595B4A54CA462
:103E8800D17C98CEB7EE96DEB7DED7EE7AFF39F75B
:103E9800D7EED6F696E6F1CD12D64ECD15D6137DD1
:103EA8006F64B6553866185EF855F8558A32E631AB
:103EB800CA5225A14158C358C4688358EFA3CE837A
:103EC800A8820BCC8DDC71F571ED92EDB2F5B2F5EF
:103ED800D3F5D2F591ED52CD0FDD8DD46DCCADCCAF
:103EE800ECBB62780170AFA35CEF4F9C6020C130DF
:103EF8004441A87A4672466A6441E6494439C32077
:103F0800601883516349E358825083504128411017
:103F18008218A218A2284331C260C360C31081105E
:103F2800E6418439A2206441A8ABC8ABA8ABA8ABD2
:103F3800A8ABA8ABA8ABA8ABC8ABC8AB2341E238C9
:103F4800A12881208120A128E2384249C361237A2F
:103F58008482A492C492E59AE59AE59AC59AC49A8D
:103F6800C492C492E59AE59AC59A629AEC7BF85590
:103F78001365D65DB65D924CF25C35C636AE327DC1
:103F8800747597DEB8D655DE33E617EF39F775DE68
:103F980056DE36DE35DEB3E6F1CD4FC592C5D17CAF
:103FA8004F6CB755185E185EF8551856A9422A6B1B
:103FB800CE6325512158C358A47862508A6A309C30
:103FC8006BBB0DC44BA38ED491F5B2F5F2FDD2F5BF
:103FD800F3FDF3FD92ED72DD70F5CEDCADD4EED4D9
:103FE8006BAB427862780168CEABB4C523398120C7
:103FF8008451266A065A4339C2284439C228A12066
:10400800A12022410249A358835062304008400051
:104018000321A96A6429A230A270E3600321400841
:104028008531C541C220E320C78209BCA8ABA8AB33
:10403800A8ABC8ABC8ABC8ABE9ABC9ABE138224148
:104048006251C361237A648AA492A492A492A4922E
:10405800A492A492A492A492A492C492C592C59246
:10406800C592C492C492E59AE59AA3A22E6C965D75
:10407800956DF755B65DB24CF16C91C515CEF685C8
:10408800588E77C657A677B696DE39F73AEF55DEDB
:10409800D3D516D696E634DEB4AD94AD93ADD09CA8
:1040A800104C9655185E1856F8551856893AA53981
:1040B800E719A6396248A340C47846798D73AB6A7C
:1040C800C9A2AFDC8CAB8BB350EDD2FDD1FDB1F5FD
:1040D800D2FDF2FD93E5F4EDB0FD4FEDCDDC4FDD03
:1040E8002AB322788378427001680EB42A73401884
:1040F80043492241023923392331E33023316118FE
:10410800C1200239A248835062484120400061081A
:10411800032185418441625082682471456A4108BF
:10412800E641C5490229C220C551C8B3A8ABA8AB0E
:10413800A8ABC8ABC8ABC8ABC9ABC9AB638A848AE8
:10414800848A848AA492848A648A648A848A849207
:10415800848A848AA492A492C492C492C492E59256
:10416800E59AC59AC59AE59A059BC49A2F74B665CF
:10417800F75DF75D965D514C118531BD32BDD1AD0E
:10418800F1A55996798E999678A698CE1AE7F8EE01
:1041980090CDF4D5B6F634CE1786756DD5B5F0A4A6
:1041A8000F5C764D18561856F85518560C43E641CC
:1041B80086190842C350624083488238086204590D
:1041C8002479EFE410ED0DCC0FE5B1FD70F56FF536
:1041D80090FD70FD93DD33FED1FD90F52FE5B0E540
:1041E800A9AA027883806278216882702FAC64392A
:1041F800E238845123418120E228E228C22881182C
:104208004431E23882486248666182202000811089
:1042180064312329E228C24862606479E68220007A
:10422800032964392331233123312793A8AB88AB81
:1042380088A3A8ABC8ABA8ABA8ABC9AB638A648A90
:10424800648A648A648A648A638A648A648A648AF7
:104258006382848AA492A492A492C492A492C492DF
:10426800C592C592C592E59AE59AC49AF274185611
:10427800F755F75DB65D8D4B8F74CFA472BDD1A590
:1042880012AE389E588E9996788E588EB8C63AFFD8
:1042980014D613D695EE56B6B66D948D30BDF2840D
:1042A800AF4355553856F855F855F8552C43684AD4
:1042B800283A232941302128414041584270427808
:1042C8004270ABC30FE5AEDC30ED4FF52FED4EF588
:1042D800ACE44DCC51DD70F5B2F590F570EDB1ED73
:1042E800A6992280838883806270016886892A83E0
:1042F80081288120A128C22003298120C220811879
:104308006439E350835862500A83C2202000A218FF
:10431800443103290329E3406260A479C4490000B9
:104328008110443164414331232908836BC44BB461
:10433800ACBC0EC52FCD2FCD91CDD1D543824382B4
:10434800638A648A648A648A638A6382848A848AC0
:104358006382638AA492A492848AA492C492C49227
:10436800E59AC592C492C592C49A06937565F755A5
:10437800D755F75D75558D53328D91CDB2CDF695E4
:10438800169676CE15C6177E57867886D5BDF4CD97
:1043980075D6B6E6D2CD739D9475318D8EACB18449
:1043A800EB323455395EF855F85518564D430742E7
:1043B800C53980304140626863786380628062807A
:1043C8006280A38827A24AB3EFDCCEDCAEDCEFDC48
:1043D8004DCCCCB3B4D532CD2CC46DD470ED0FE533
:1043E800A3908390A3908388838062780170068A63
:1043F800298381186018611061106539E328A228A3
:10440800E238A248A3608248C34061184000C22035
:10441800443102290329C3484260847902210000FB
:104428006110E22085392331E2280FBD95EE54E66C
:1044380095EED7F6D6EEF7F6F7F6F6F644826382EF
:10444800648A638A638A648A638A648A848A848AB7
:10445800848A638A84928492A492A492C492C49A0D
:10446800E59AC592C492C592C49A488BB65DD75551
:10447800D75DF76534557154D595B1D572A51786B2
:1044880057C6D1DD13C6956DD58D5886F2C50EBDBC
:10449800169E34D6EC630C5C8F64327DEC9B4F84A3
:1044A800282A144D395EF85DD755F84D314C073A36
:1044B8002451427062786278627863806280628098
:1044C8008380628822806280459124918ED430DD79
:1044D8006DD4F1CC58DE93D52DC4CBBB2CBCA9AA86
:1044E8000180A398A390A390A388838062806278B8
:1044F800659A433161106110A220E3288120A24807
:10450800A250A350A35862404238411861080329B9
:104518004431E2280229C3506268C471A1182000FE
:104528008110A218E220E228666295EE95F675EEF3
:10453800B5EED6F6D6F6D6F6D6F6B5F6638A648A1A
:10454800648A648A638A648A648A648A848A848AB4
:10455800848A84928492A492A492A492A492C492EB
:10456800E59AE59AC492E59AC49AAA8B354DD65D28
:10457800D75DF7651455305C5375F4ADB49D50A5FF
:1045880016C6F0BC12D6B58DB07C5896F5A5B49574
:10459800956D12855385737D327D10954D94CE634C
:1045A80045195555395EF855D74DB745D44C07428E
:1045B800C378638082786278627862806280838060
:1045C80083808388A38883880180459930DDAED4B1
:1045D8002CCCB4D598E672DDAED46DCCEBBB4AA337
:1045E800068AE388A398A390C390A38883886280EF
:1045F800A2808128811024318539A238A2408248BE
:10460800A358A3508248825082504110A2104431CE
:104618002431E228E220C258826869938108400860
:104628008118C220A118A54154E6B5F675EE74EEBE
:1046380095EED6F6D6F6B6F6D6F695EE648A648A80
:10464800648A848A648A848A648A848A638A848A73
:10465800848A84928492A492A492A492A492C492EA
:10466800E592E592E49AE59AC49AEC8B7244B655C1
:10467800D75DF75D144D2D5CEE74F77DB39591AD64
:10468800F6B5D0ACF2DD16AED585B57D536532658D
:10469800327D38A657BE9585949DAEA4B3BD2B4BED
:1046A80045197655395EF855D74D9745B43C097389
:1046B800C3888380838083808388A388A38883902A
:1046C800A390A390A390A490228807AA91E5EFD481
:1046D80010DD36E6B8E6D3E5EFDCAED4AED48B9B7E
:1046E800CBABE99AA390C498C498A3908390A39065
:1046F80063888260811823310339A248C3508248F5
:1047080082488248A250A25882404008A2106531CF
:104718002331E228E228A360A260498B610841089E
:10472800C220E22881184DA417FF34E654E654EE5F
:1047380054EEB5EEB6EEB5EEB5EEB5EE648A648A23
:10474800648A648A648A648A648A848A848A848A91
:10475800848A848AA492A492A492A492A492C492D1
:10476800C492E59AE59AE59AC3A2CB837655D65DBD
:10477800D65DD65DF444CA536F95D695F6853796BF
:1047880072BDB2D514D6D58DD675D6759475939558
:10479800B49D707CCC83339531B5AB8352ADAD639A
:1047A80065197555385EF855D74DD745522C275A97
:1047B800A390A380A388C388A390C490C490C498EE
:1047C800C498C498C498E498228869B2F3ED92E535
:1047D800D3EDB9F63CF7F4ED50ED0FE50FE52DB448
:1047E800896A2DB4E6996398C498E4980491629014
:1047F8008390C488C230E128C2308238824082481F
:104808008250A25882588250623820008210443167
:104818002331E220E230A368A258A7624000410891
:10482800C220E228233113DEB5F675EE75EE75EE7B
:1048380095EEB5F6D6F6D5F6B5F6B4F6638A638A7C
:10484800848A648A648A848A848A848A848A848A30
:10485800848A848A8492A492A492A492A492A49210
:10486800C492C59AC59AE59AA39ACB83F855D75DA1
:10487800D65DB655D33C4C64EF8C92BDF685388E28
:10488800D4BD0FCDF4B595659465737D956D74753C
:1048980093B56E9C0A9C6B8471746D7C4E74CE6B60
:1048A800A6217555385EF755B74DD745522C0441AA
:1048B8008388A388C388E490E490C498E4A0E4A023
:1048C800E4A0C498C4A0E5982290A9B234F6D3F520
:1048D80014FE1BF75CF714F6D2FDB2F510E5EFDC19
:1048E800C97A4A936AB3A490C398CAAA4CB3A6A13A
:1048F8006290A398E350E220C23082488350A350CC
:104908008258A35883508248623020008110443175
:104918002331E220C2388368E350A8620000811086
:10492800E2288118886AF6FE94F694EE74F674EE1E
:1049380074EEB5F6B5F6B5F6B5F693F6648A648AFC
:10494800848A848A848A848A848A848A848A648A0F
:10495800848A848A848A848AA492A492A492A4923F
:10496800A492C492C592C492A39A8A83B755D75D7C
:10497800D65DB655D33CD254539510B5D695536DE4
:10498800B4AD16BEB1A50F65947D909D9485127D3A
:1049980011959084697BEB6B2E540F7C6C638D535F
:1049A8002932354D185ED755B74D9745B4348651E1
:1049B8006288A388C390E498E4980499E4A005A1C8
:1049C80005A1E49804A104A1229089B234F6D2F595
:1049D800F3FDD9F6FAF614FEF3FDF3FD92F52DBCBE
:1049E800ABABCBB34DC489A228A22FBCCDBB0BB3B4
:1049F80045A162A0C3600229C230A3508350A350CE
:104A0800A358A35883508348612020008110233184
:104A18000329E220C24062680459474A4108E3205A
:104A2800E32061188EACF6FE74EE74EE74EE54EE6C
:104A380074EEB5F6B5F6B5F694F673EE848A648A24
:104A4800648A848A648A648A848A848A648A648A8E
:104A5800848A848A848A848A848A8492A492A49286
:104A6800A492A492C592E59AA49A8A8B765DD755AA
:104A7800D6559655F43C344D74ADAFB4738DEE8C69
:104A8800938DD7756F857195728DF1C515CE76DECC
:104A9800D1841144314C0B5CC794AD534C4B0D84FD
:104AA8006942F444395EF755B74D974DD434665989
:104AB80042888390C398E49804A125A105A105A97B
:104AC800E4A0C498C498A3980188E7A9F2F591F5E1
:104AD80091F598EE1AF713FEF3FDF3FDD2F570ED9C
:104AE8000CBC2DBCEEDCACB3EBAA0EBCEAB2CAB26D
:104AF800CAB2C3A0A260432923418248835083508D
:104B0800A350A358A350823841082000A21823318B
:104B1800E228E220A24841584451C5398210811048
:104B28008110643954EE95F654EE54EE54EE53EE7B
:104B380074EE95F6B5EE94EE94EE73EE648A648A9C
:104B4800648A438A638A638A638A838A848A648AD2
:104B5800648A648A848A848A848A84928492A492E5
:104B6800A492C492C492C592A39AAA83B665965594
:104B7800D755964D353D144D4F94908CD595D8EE1C
:104B880015C6956D947DD595F4C576DE94C554E625
:104B980015C652446F4C6D5CAD7CEE4BEE4B2C53FE
:104BA8006429F444395EF755B74D9745D4344661C6
:104BB8004290C3980499E498C4A0E4A004A1E4A096
:104BC800E4A06390E490F3CC4DB369AA55F656F689
:104BD80035EE97EED9F691F5B1FDF3FDD2FD70F5FE
:104BE8004FEDEEE4EEE42DCC8CAB0EBC48AA2BB313
:104BF8004FC465A98260442965498248835083501F
:104C0800A350A350A350623040082000E22003299B
:104C1800E228E228A2504250E238E2184008611027
:104C280040104A7BF6FE54EE54EE54EE53EE53EE2B
:104C380053EE94EE95EE94EE94EE73EE64826482F5
:104C48006382638A638A638A638A838A648A638ADB
:104C5800648A648A848A848A848A84928492A492E4
:104C6800A492A492A492C592C49A28831455965DDE
:104C7800D74D964D5535B15411B5949577CEF5D598
:104C8800F3D5D5953786948555DE77DE74C54FC53F
:104C980011CE6E957354936C146D6F740E7DAE5B6C
:104CA8004521D344395ED755B74D9745D434256946
:104CB8006290C398E4A0C4A004A1E4A0E4A0E4A086
:104CC8008398059137DEFFFF5BF798EED9F61AF760
:104CD800FAF67CFF7BFFF3ED0EEDB1FDB2F591F531
:104CE8004FED2FE5EEE40DBC0FAC6CABAAAA0FC4D8
:104CF800ADC3C6B162684429644183488350A35058
:104D0800A350A3508348C3306108410803290229EE
:104D1800E220C22882608248811840004108C220EF
:104D280061182A7BF6FE54EE54EE53EE33EE33E66A
:104D380013E674EE94EE74EE74EE53EE64826382BE
:104D480064826482638263826482648A638A648A16
:104D580064826382648A648A648A648A648A648AEC
:104D6800848A638A648A648A8392C5825144B65D60
:104D7800D74D964D3535D16431A5D58DB3C56FA4C2
:104D880076EEB7D6B66D337576DE15D672C592C592
:104D98002DD66CA5F14BF6C4B6854E84524CEE4B1D
:104DA8000C7455551856F755B74D9745D43C0479AA
:104DB8006298C398E498C398C390C398C498C49859
:104DC800019092C47CF778E636E699EE1BF75BFF14
:104DD8005CFF7CFF9CFF7BFF91ED2FF5B1F591F512
:104DE80050ED0FE5CEDC8FBC12C50EBC8CB32BBBCF
:104DF8000ABB28B2627844294439A3488350A35097
:104E0800A35083508240C328410882180331E2200E
:104E1800E220A23882608240811040006110C220E6
:104E28002008C86A94FE13E612E6F2E5F2E5F1E519
:104E3800D1E512E694EE94EE94EEB4EE63826382CA
:104E480043826482648243824382438243824382F0
:104E58002382237A237A2382237A437A6482648A98
:104E6800C58AE692279B479BC8AB6CAC5565755DB8
:104E7800D74D964D353DB244537D738514CECFB48E
:104E880090CDF7BDF45CB49539FF76E6CDBC51B54D
:104E98000B9D2E8D366D315CB77DD38411446D64C6
:104EA800EBA4144D1856F755D74DB745933CC3702E
:104EB8008398A398A398A398A398A398A3982298B3
:104EC800669194CDF5D557DE78E6B9F63BFF9DFFA0
:104ED8009DFF9CFFBDFFDEFF76EE2FED92F591ED75
:104EE80050E5EFDC8FCCCBABEBB393D537DE0AB311
:104EF800CAB2C7A9628064314439A3408350A35021
:104F080083508348824021108108E320C220C220B8
:104F1800C218A2488258A23061104008610881185E
:104F28006110CB9B12EE32EE11EE11EE11EE11EE86
:104F380011EE11EE94F6B4F673EE33E64382438233
:104F48004382438243822382237A027A237A4382EA
:104F580043828582C58A0693889BA9A30AAC6BBC49
:104F6800ACC4EDC4EDCC0ECD6FD5D1D5546DB75DC5
:104F7800B74D964D553DEF43705CB3A596E670D599
:104F8800B2CD55B5F47416A67AFFF9EEF3CDD2CDAD
:104F9800B264976D9865966DB785F3A4F27C108519
:104FA800A86B5134395EF755D755B745923CC37055
:104FB800829883908390A398A398A3986298089A5C
:104FC80053CD69A349A3F0C499EE1BFF5BFF7CFF97
:104FD8007CFF7CFF7CFF9CFF3AFF30E551ED51EDF3
:104FE80010DDCFD4CCB36BA349A38AB37CFF78E69A
:104FF8008CB3E7A9628064314431C3488350A34825
:105008008348834862304108821082104108A11801
:10501800A21882508250822040004108A118A1188D
:10502800A5492FD5B1D511EEF1ED11EE31F631F6D6
:1050380031F631F693F6D5FEB4F6D1D50372237A5C
:10504800647A8482C58A0693479B689BA9A3EAABC6
:105058002AB46BBC8CBCCDC4EDCC0DCD0ECD2ECD01
:105068002ECD2ECD2ECD0ECD6FD590DD337DD755DF
:10507800B755964D153D6C5B6F6C7475B5A556DECE
:10508800D4B512757575DABE5AFFF8EEF3D5D5ADFD
:10509800D785B6957665F0BDB68553ADF36CB35438
:1050A800CE5BD25C1856F755D755D8457244A378CD
:1050B8008298839083888390A3988390215853BDC6
:1050C80051D5ABB36EC4CBB38FC41BEF5CFF5BFF92
:1050D8009CFF9CFF3BFF19FF9CFF15EEEFDC31E5C1
:1050E8008FD4ACAB4BA34EC4AFCC0BC457EE99EEE8
:1050F800EDBB08AA628064314431C34083488348C9
:10510800824082404118A2188551E238A4516108B2
:10511800A21882486240611020008118E22081189C
:105128000883F2E595EE73F652F652F672F672FEC1
:1051380072F672F6B4FEF6FED5F675DE689BEAA343
:105148004BB48CB4CCBCEDC40EC5CCC4ACC4CCC47C
:10515800CCC4CCC4CCC4CDC4CDCCCDCCEDC4EDC472
:10516800EDC4EDCCEDCC0DCD6FD54EDD537DF755AF
:10517800B655964DD43CED6BB164126D748DF6A5A1
:10518800B775B8D677C69A96FAD6D7EEF3DD128DEC
:105198007665739D397E8FAD378E79A6356DB45C93
:1051A8006F64D2541856D755D755D74D933CA37032
:1051B80083A0A39883908388838842700030696AAB
:1051C800CFCC10D531DDF0D44DC473D57DF71AF7A7
:1051D8003AFF5BFF9DFF7CFF3AFFB8F6CFD48EDC29
:1051E8000EB471A4ACB311D510DD8CD415E637E636
:1051F800EEBB65A96280C2200329E3386240824081
:1052080082406238211085498782868A868AA45915
:1052180081106238612820006108C220A120601036
:10522800CB9BB4FED5F673EE32EE32EE32EE32EEB2
:1052380032EE31EE31EE73F653EE95DECDBCEEC4B0
:105248000DC50DC50EC50ECD0ECDACC48BBC8CBC2A
:10525800ACBCACC48CC4ACC4ACC4CDC4EDC4EDCC43
:105268000DCD2ECD2ED54ED590DD8FE55385B75576
:10527800B655964D144D086BED6BB4A557CEF87D19
:10528800779EB5DE35D6F59DB9CE36C6B2BD6D9CD6
:10529800975DF87D7B865475F77D38865795D68C53
:1052A80070945255F84DF755D755B74D143D0579BB
:1052B8006298C4A0C4A0A398838862700138E330C0
:1052C8008ECC92EDB3ED72E551E5CFD436E65CFFB6
:1052D8003BFF7CFF9CFF9DFF7BFF1AFFF1CCECCBD3
:1052E80054BDF2B44EC452E551E5EEE415E678E655
:1052F800ADB362A082808120C220A22862406238B9
:10530800623862286220A45949A3AAB38AA389B340
:10531800E4698130412061288110C220A118400829
:10532800AA9BF1E5F5FE53EE11EE32EE12EE12EE07
:1053380011EE11EE11EE53EE73EE53EEACBCCDBC94
:10534800CCBCEDC4EDC4EDC40DC5ACC4ACC4ACC498
:10535800CCC4EDCCEDCC0DCD0DCD2ED52ED52ED586
:105368002ED52ED54ED54ED590DD6FE5F184933CE4
:10537800F7559645F35C4973CF9C14D6F2E537C6CA
:10538800349612BE55D633CE97E6B29D7665328DE9
:10539800AEA5555D399E19861886D675D58C77BD0C
:1053A800D4A4D33C1856F755D755B74D353DA771FA
:1053B8004298C398C4A0C3988390627821388230F9
:1053C8006EC4F3F5F4F5D4F5F4F592ED10D51BF7AA
:1053D8005BFF5BFF7CFF7CFF7BFF9CFFB4D58BBB37
:1053E80092B44FB4D0D492ED92ED0FED76F6D6D5B7
:1053F8004BB365A961780329C220A250A368624013
:1054080062282118E238E79A89B389B38CCCCABBE1
:1054180048B3E24041286240A220A218A2186110B5
:105428004BB42ECD53EE32EE12EE12EE12EE12EE19
:1054380011EE11EE11EE32EE73EE73EECDBCCDC46B
:10544800EDC40DCD2DCD2ECD4ECD0DCDEDCCEDCC6D
:10545800EDCCEDCC0DCD0DCD0DCD0DCD0DCD0ECDB5
:105468000ECD2ECD2ED52ED54FD54EE51195144502
:10547800D7559645135D8F74128592CD92D592C5F6
:105488001896DB9E36BED6EEF8EED0AD186E598E65
:1054980010B638965CE7B785136DD7753575B36C5C
:1054A8003154F4441856F75DF755B74D3535E8696A
:1054B8004198C398C3A0C398A39062800148E34071
:1054C800CFCCF3FD14FE15FE35FE14F630DD72D593
:1054D8005CFF5CFF7CFF5BFF5BFF5BFFB9EE90C48A
:1054E8006B9BCCAB31DDD3F5B2F52FEDD8FEF6DDF5
:1054F800ACB3EDC3C2680329C340625865690B8326
:105508000018411829936CCCC9BBE9BBEAC30BCC82
:1055180048AB668A44512128C238A21861108441D8
:105528000DCDACBCD1E532EE11EE11EE11EE11EE5F
:1055380011EE11EE11EE11EE53EE73EEEDC40DC542
:105548000DCD2DCD2ECD4ECD4ECD0DCDCCCCCDCC43
:10555800ECCCECCCEDCCEDCCEDCC0DCD0DCD0DCD1A
:105568000DCD0ECD2ECD2ED52ED54EDD319DD75558
:10557800B655964D14554C7C4FBDF1B452BDADB4E3
:10558800958D5EB798CEB8CED8E61796598ED76D5A
:10559800397E379ED77DB0AD4FA5B67D54756E9DCB
:1055A800D44C3545185EF85DF755D75515358761E4
:1055B8004198C398C498C398C398838800480B83BC
:1055C80030DDD3F514FE55FE56FE56FEF4F5CED466
:1055D80057EE9DFF9DFF9DFF5BFF1AF7DAEE13CD97
:1055E8002AA32DBC72E5D3F5F2FD4FED3AFF77E61D
:1055F800CFCC4ECC4A9BC2286240414024510B7B01
:105608000020A882AED4ADD48CD4C9C3CABBACDC4C
:10561800868A48B384590120A250A118E2282BACED
:10562800EDCC8CBCD0E532EE11EE11EE11EE11EEA0
:1056380011EE11EE11EE11EE11E652EEEDC40DC5AC
:105648000DC50DCD2DCD2ECD2ECDEDCCCCC4CCCCD5
:10565800CCCCEDCCEDCCEDCCEDCCEECC0ECDEDCC78
:10566800EDC4EDC4CDC4CDC4ACC48BCCCF9C764DB9
:10567800D755B64D144D2C6CF3C5F4D5D2DD91BD7C
:10568800D39D35BE19EFB8DE56C6985554A6D495A5
:10569800986D8DB5126DB77DB29D29AD9385D0AD4E
:1056A800F444153D185EF85DF855D755F434665145
:1056B8004298A398E498C398C3984280C671F2B4FC
:1056C800EFD4D2F534FE75FE96FEB7FE55FEB2F560
:1056D800CFD457E65CFF9DFF9CFF5BF7BAE691B419
:1056E8002AA3F1D4B3F514FED2FD90F59DFFD9F6A7
:1056F80072DD8FCC11D5AC93413841304128003050
:10570800E3506DC4CDDC2EE56BD4A9BBC9C3C9C3B6
:1057180028AB09D4A3610128A26881282973D0E5A0
:105728008CBC8CBCD0DD32EE11EE11EE11EE11EE18
:1057380011EE11EE11EEF1ED11E652EEEDC4EDC4ED
:105748000DC50DCD2ECD2ECD4ECDEDC4ACC4ACC403
:105758008CC48CC48CBC6BBC4BB44BB42AB40AB498
:1057680009ACE9ABE9AB09B409B409BCAE9C555D19
:10577800B655B74D3455D174738D75E6D1DD97C6DE
:10578800B2D60FCED7F696EEB68D987DB5BE35A6B5
:1057980018BE34BEB685175D4F956DE6D68D765D1D
:1057A800353D153DF855F85DF855F855D33CE448B6
:1057B8006298A398C398E498A398E48870B4D2B484
:1057C800CFCC91F513FE54FE75FEB6FE96FE76FE1E
:1057D80071ED2CBC73D5B9EE57E61BEF79D66B93F8
:1057E8006BAB93EDF3FD33FE90F555F6BDFFB8F6C0
:1057F800B4DD31D5CFC4EDABA350413841302138A9
:10580800067AADD42FE5CDDC6CD44BDC4BDCA9BBE0
:105818004BD48AE4C69241388268A2404DA4D0E5B0
:105828008CBC8CBCB0DD32EE11EE11EE11EE11EE37
:1058380011EE11EE11EE11EE11EE52EEEDC4EDC4C3
:10584800EDC4CDBCCDBCACBC8CBC4BB4E9ABC9A3DE
:10585800A8A388A388A388A3A8A3A8A3C8ABE9ABD7
:1058680009B42AB44ABC6ABC6ABC6AC4CE9C7565D1
:10587800765DB74D345594AD4E9D76DED3CD77AE7B
:10588800D4D64FD697E698B6B68539C6D685136D61
:10589800F7BD776DD79D3ABE4F852FC65B86D78DEE
:1058A80034553535D855185EF85DF85DD33C254933
:1058B8004290A398C398C398C398A388EEABF2BC50
:1058C800B0C490F5B1F5D2FD13FE95FEB6FE96FE76
:1058D80035FE72E58FCC4EB42DBC17D612BDACABDD
:1058E8004ECCD3F513FEB0FDF2F55AFFBCFFF9FE1E
:1058F80014EE92DD50D58C9B214862482138E3583C
:1059080069A3ADD4CDDCCDDC0EE58BDC4BD4EAC38A
:105918008BDCCBE4A8B38258826861480BA4D0E53D
:105928008CBC8CBCB0DD32EE11EE11EE11EE11E63E
:1059380011EE11EE11EE11EE11EE53EEC9A3C9A34B
:10594800C99BC89BA89BC9A3C8A3A89BA8A3A8A395
:10595800A8A3C8A3E9ABE9AB09B429B44AB46ABCA3
:105968008BBCABC4ABC4CCC4CCC42DDD50B5965DE8
:105978007565B64D344DB08C6FA557A6F4AD168E2F
:1059880074C631DE13D658AEF3A5356D3655548D31
:105998009685765DF78DB795556DF9757585F2E540
:1059A80056BE7645D74D185EF85DF85DD33C654127
:1059B8004190C398E498E498C3984288289291B497
:1059C8000EB470EDF2FDD1FD90F5D2FD75FE96FE98
:1059D80055FE15FEB4ED31E5AFCCB1BC6AA3EDB30D
:1059E80052E5F3FDD1FD90ED3AFF9CFFDDFFF8FE97
:1059F80034EE14E6D3DD6882214882402140A89223
:105A0800EEDCADD4EEDC2EE5CDDCEDDC6BDCE9CBF9
:105A18008BDC4CF588B36260A36841486993D0E594
:105A28008CBC8CBCB0DD32EE11EE11EE11EE11EE35
:105A380011EE11E611E611EE11EE53EE479367935E
:105A4800889BA89BE9A30AAC4AAC4AB42AB44AB4D6
:105A58006ABC8BBCABBCACC4CCC4CDC4EDCCEDCC67
:105A68000DCD2ECD2ECD0ECD2ECDB0E591C5F35456
:105A7800B254B6553545F18CB2BD15AE78967896C8
:105A8800B3B513DEB0DD15C696BE345DB775957532
:105A98009665D76D187EF76DF865F86DB1D551CD5F
:105AA80018FFF775B745185E185EF85DD33C4539A1
:105AB8004290A398C398C398C398839082708669CC
:105AC8002FB491E5D0FD74FED1F571E5F2F575FEC0
