:020000040800F2
:100000000050002021020008270200082B020008EF
:100010009D020008A1020008E9020008000000009B
:100020000000000000000000000000003103000894
:10003000350300080000000039030008CD0A00085D
:100040004D0300084D0300084D0300084D03000850
:100050004D0300084D0300084D0300084D03000840
:100060004D0300084D0300084D0300084D03000830
:100070004D0300084D0300084D0300084D03000820
:100080004D0300084D0300084D0300084D03000810
:100090004D0300084D0300084D0300084D03000800
:1000A0004D0300084D0300084D0300084D030008F0
:1000B0004D0300084D0300084D0300084D030008E0
:1000C0004D0300084D0300084D0300084D030008D0
:1000D0004D0300084D0300084D0300084D030008C0
:1000E0004D0300084D0300084D0300080000000008
:1000F0000000000000000000000000000000000000
:1001000000000000000000005FF808F100B583B0B7
:1001100000F0AAF9304B314A1360314A1360314B79
:10012000314A32498B4204D21168196004330432D7
:10013000F7E72A4B1A682E4B9A4200D0FEE7284B6D
:100140001A682C4B9A42F9D1234B2B4A13602B4A45
:1001500013602B4B02E000221A600433294A9342B9
:10016000F9D3254B1B6813B9244B1B6803B1FEE779
:1001700000F086F9694601A800F022F9224C234BD1
:10018000E41AA4100025AC4214DC214C214BE41AE3
:10019000A4100025AC4213DC0099019800F020FE69
:1001A00005461D4C1D4BE41AA410002C0EDC2846FD
:1001B00000F0E2F8154B53F8253098470135E2E797
:1001C000144B53F8253098470135E3E7013C134BB6
:1001D00053F824309847E8E7BABADECA0000002096
:1001E0008800002000000020941800088C000020E7
:1001F00078563412325476988C0000204C480020F7
:100200008C00002050480020780300087803000884
:1002100078030008780300087803000878030008D2
:1002200008B5FFF773FF00BEFEE71EF0040F0CBF1A
:10023000EFF30880EFF309807146414A10472DE93A
:10024000F04182B004468846124B5E6B9F6B9D6AFC
:100250001B6B13F0020F03D00E4BDB6A002B0CDB81
:100260000D4800F0B5F8CDF800803B4632462946EF
:10027000204600F009F900BEFEE74BF6AB6100F046
:100280007DF90028ECD0034B4FF00042DA6202B057
:10029000BDE8F08100ED00E0A817000800BEFEE711
:1002A0001EF0040F0CBFEFF30880EFF309807146D6
:1002B000244A10472DE9F04182B004468846084B95
:1002C0005E6B9F6B9D6A074800F082F8CDF8008056
:1002D0003B4632462946204600F0D6F800BEFEE7EF
:1002E00000ED00E0B81700081EF0040F0CBFEFF39C
:1002F0000880EFF309807146134A10472DE9F04159
:1003000082B004468846084B5E6B9F6B9D6A074827
:1003100000F05EF8CDF800803B4632462946204684
:1003200000F0B2F800BEFEE700ED00E0C4170008E0
:1003300000BEFEE700BEFEE700BEFEE7704700001D
:100340003F020008B5020008FD02000800BEFEE7FB
:1003500094180008000000208C0000209418000869
:1003600000000000000000008C0000205048002029
:08037000000000000000000085
:10037800FEE7000008B503460C4A12685AB10B4A5A
:100388001068033323F003030344094A934206D851
:10039800064A136008BD054A06491160EFE700F0F8
:1003A80041FD0C2303604FF0FF30F3E7900000207D
:1003B800004C00205048002001230360014B0B60D3
:1003C800704700BF040000200FB400B583B004AB31
:1003D80053F8042B01938021064800F055FD0028AE
:1003E80003DD0146034800F037F803B05DF804EB7D
:1003F80004B07047980000202DE9F04385B004460A
:100408000F4643560BB10E461EE0042528462146EA
:10041800ABBE0446384605B0BDE8F08314F9011BAD
:1004280004AA1A4402F8101C0133AB42F6D304AAFA
:100438001344002203F8102C4FF00408E946404604
:100448004946ABBE8046761B002EE3D03546102EBB
:1004580028BF10250023E8E708B5FFF7CDFF08BD42
:1004680008B500F0FDF8024A024B9A6008BD00BFCB
:100478000000000800ED00E008B500F019F908BD1B
:10048800F8B504460D4617461E462748FFF79CFF59
:1004980021682648FFF798FF61682548FFF794FF11
:1004A800A1682448FFF790FFE1682348FFF78CFF15
:1004B80021692248FFF788FF61692148FFF784FF17
:1004C800A1692048FFF780FFE1691F48FFF77CFF1B
:1004D8001E48FFF779FF29461D48FFF775FF1D4C99
:1004E800E16A1D48FFF770FF216B1C48FFF76CFF9E
:1004F800E16B1B48FFF768FF15F0800F0AD115F470
:10050800004F0CD11748FFF75FFF06991648FFF711
:100518005BFFF8BD39461548FFF756FFEFE7314650
:100528001348FFF751FFEDE78C1600089C160008EA
:10053800AC160008BC160008CC160008DC1600082B
:10054800EC160008FC1600080C1700081C17000819
:100558002817000800ED00E03817000848170008C1
:10056800581700088817000890170008681700082F
:100578007817000883691A888A4201D000207047DA
:100588000268033A012A03D80233836101207047C5
:100598000020704782B00023019300932C4A13680F
:1005A80043F4803313602A4B1B6803F40033009331
:1005B800019B01330193009B1BB9019BB3F5A06F0D
:1005C800F1D1234B1B6813F4003F06D0012300939D
:1005D800009B012B04D002B0704700230093F7E77B
:1005E8001C4B1A6842F010021A601A6822F00302C3
:1005F8001A601A6842F002021A60A3F580535A681A
:100608005A605A685A605A6842F480625A605A6856
:1006180022F47C125A605A6842F4E8125A601A6846
:1006280042F080721A600A4B1B6813F0007FFAD000
:10063800074B5A6822F003025A605A6842F00202D5
:100648005A60034B5B6803F00C03082BF9D1C2E72F
:10065800001002400020024008B5FFF79BFF08BDCC
:1006680008B5104B1A6842F001021A6059680E4A20
:100678000A405A601A6822F0847222F480321A60A2
:100688001A6822F480221A605A6822F4FE025A601C
:100698004FF41F029A60FFF7DFFF044B4FF0006230
:1006A8009A6008BD001002400000FFF800ED00E06D
:1006B8001F4B5B6803F00C03042B15D0082B17D0D5
:1006C8001BB11C4B1C4A1A6002E01A4B1A4A1A60EA
:1006D800174B5B68C3F30313184AD35CDAB21549A6
:1006E8000B68D3400B607047124B134A1A60EFE750
:1006F8000F4A53685268C3F38343023312F4803FAE
:100708000AD00B4A526812F4003F0BD00C4A02FB85
:1007180003F3084A1360DBE7094A02FB03F3054ABF
:100728001360D5E7044A02FB03F3024A1360CFE7DC
:10073800001002401C00002000127A000C0000206B
:1007480000093D00154BDB6813F0010FFAD1134B7C
:100758001B6913F0800F05D0104B114A5A6002F143
:1007680088325A600D4B1A6942F002021A618002FF
:1007780000F1006058611A6942F040021A61074BA3
:10078800DB6813F0010FFAD1044BDA6842F020025B
:10079800DA601A6922F002021A61704700200240EA
:1007A8002301674510B5072404E02046FFF7CAFF78
:1007B8000134E4B23F2CF8D910BD000030B482B047
:1007C800184BDB6813F0010FFAD1164B1B6913F0B5
:1007D800800F05D0134B144C5C6004F188345C60C6
:1007E80000241AE00F4D2B6943F001032B6131F807
:1007F8001430ADF8063020F8023B0A4BDB6813F0E2
:10080800010FFAD1074BDD6845F02005DD601D6951
:1008180025F001051D610134E4B29442E2D302B02F
:1008280030BC7047002002402301674510B40128FE
:1008380024D018B1022841D010BC7047072910D91C
:100848000F29F9D8A1F10804E4B2A4000F23A340AA
:100858002A48016821EA030302FA04F119430160F6
:10086800EAE789000F2303FA01F0254C236823EAFD
:10087800000302FA01F119432160DDE7072910D9C5
:100888000F29D9D8A1F10800C0B280000F238340F6
:100898001C4C216821EA030302FA00F11943216084
:1008A800CAE789000F2303FA01F0174C236823EAEB
:1008B800000302FA01F119432160BDE7072910D9A5
:1008C8000F29B9D8A1F10803DBB29B000F2098408B
:1008D8000E4C216821EA000002FA03F1014321606D
:1008E800AAE789000F2303FA01F0094C236823EAD9
:1008F800000302FA01F1194321609DE70408014051
:1009080000080140040C0140000C014004100140A3
:10091800001001400246A0F13003D8B2092802D9DC
:10092800A2F13700C0B270472DE9F84F064640786B
:10093800FFF7F0FF0746B078FFF7ECFF40EA07172C
:10094800FFB2F078FFF7E6FF04463079FFF7E2FFE1
:1009580005467079FFF7DEFF8046B079FFF7DAFFCA
:100968001F4A538840EA034040EA081848EA052825
:1009780048EA0438C2F80080002527E04FEA850BD2
:100988000BF10903F05CFFF7C5FF81460BF10A0381
:10099800F05CFFF7BFFF82460BF10B03F05CFFF73B
:1009A800B9FF04460BF10C0B16F80B00FFF7B2FF6A
:1009B800240344EA002000B240EA0A0000B240EAF8
:1009C8000910084B23F815000135EDB27A08AA4240
:1009D800D4D804494046FFF7F1FEBDE8F88F00BFC0
:1009E800200000201801002008B5037A302B00D021
:1009F80008BDFFF799FFFBE7034B81221A60043318
:100A080000221A60704700BF001002401F291CD83E
:100A180001280BD010B1022810D070470B4803688A
:100A2800012202FA01F1194301607047084803687E
:100A3800012202FA01F11943016070470548036871
:100A4800012202FA01F119430160704714100240B3
:100A58001C10024018100240024A136823F00403D5
:100A68001360704710E000E010B40B4B1A6822F0D6
:100A780001021A6000249C605860084A11601A68D4
:100A880042F002021A601A6842F001021A60044B2E
:100A98001C7010BC704700BF10E000E0E0010020AF
:100AA800E4010020064B1A6822F002021A601A6854
:100AB80022F001021A6000229A605A60704700BF53
:100AC80010E000E008B50A4B1B785BB9094B1A68BF
:100AD80022F002021A601A6822F001021A6000224B
:100AE8009A605A60044B1B689847024B1B6808BD04
:100AF800E401002010E000E0E001002010B50E4BFA
:100B080045229A60DA6842F40052DA60DA6842F004
:100B18000802DA60DA6842F00402DA6000241C6035
:100B280004220A212046FFF781FE0B2209212046D4
:100B3800FFF77CFE10BD00BF00380140002208E02E
:100B480006494B60054B1B6813F0400FFAD0013281
:100B5800D2B2835C002BF3D1704700BF003801404C
:100B68000023094A126812F0200F05D1013383428D
:100B7800F7D14FF0FF3000E0002010B9024B586861
:100B880040B2C0B2704700BF0038014038B50546D2
:100B98000024074B1C70204606E02846FFF7E0FFBC
:100BA800034B18550134E4B2FF28F6D1012038BDB3
:100BB800FC01002070B506460D461446002017E0DB
:100BC8000D48FFF7BBFF3046FFF7B8FF0B48FFF7AC
:100BD800B5FF2846FFF7B2FF0948FFF7AFFF2046E9
:100BE800FFF7ACFF0748FFF7A9FF0748FFF7CEFF5D
:100BF8000028E5D070BD00BFE8170008F817000806
:100C0800FC17000800180008F04902002DE9F84315
:100C180007460025A946A8462C4628462E460FE03A
:100C2800B8F1000F2AD0B8F1000F05D025B9444615
:100C380002E00D2826D00024012C26D0012D28D032
:100C4800FF2816D03846FFF78BFF3A28E8D02B2824
:100C5800EFD00D28EDD0432802D0B9F1000FEBD02A
:100C68004C2802D04FF00109E6E7731E0D4A0A210D
:100C7800D154952E13D90120BDE8F88344464FF08E
:100C88000108D9E701250024D6E7064B9855013617
:100C9800D6E73A28D4D123462C461D46D0E7002073
:100CA800EAE700BFFC01002008B5002008E00C4876
:100CB800FFF744FF0B48FFF741FF0B48FFF766FFBC
:100CC8000028F4D0002008E00848FFF737FF05485F
:100CD800FFF734FF0648FFF759FF0028F4D008BD96
:100CE800D417000800180008A0860100DC170008C7
:100CF800F049020008B50D4A0D490E48FFF75AFFA2
:100D0800002006E00C48FFF719FF4FF4FA60FFF7E0
:100D18003DFF0028F6D00948FFF710FF0848FFF705
:100D28000DFF0848FFF772FF08BD00BF0418000850
:100D380008180008181800081C1800082C180008C3
:100D480000180008F049020008B5044B044A1A606C
:100D5800044B1B68044A1360984708BD08ED00E07F
:100D6800001C0008041C0008EC01002000B58FB02E
:100D7800FFF718FD1AE00EA8184400F8341C0133D8
:100D8800DBB2013211490A60104A12681049895CC5
:100D98000A29F0D10EAA13440A2203F8342C01A818
:100DA800FFF722FE094A136801331360074B1B68DB
:100DB8000133074AD35C0BB10023E5E7054901205D
:100DC800FFF752FE0FB05DF804FB00BFE8010020FA
:100DD800FC010020510D000808B5FFF70DFE0221A7
:100DE8000846FFF713FE0E210220FFF70FFE04212D
:100DF8000020FFF70BFEFFF781FEFFF72DFEFFF740
:100E080053FF06490648FFF72FFEFFF773FF012837
:100E1800FBD1FFF747FEFFF7A9FFF6E7510D0008E2
:100E2800C0E1E400014B1868704700BF24000020AF
:100E380030B5141E05469BB0184605DA8B234FF0D3
:100E4800FF302B601BB030BD4FF40273ADF80C308F
:100E58000CBF234604F1FF33029305934FF6FF734B
:100E680000910491ADF80E3002461E9B6946284653
:100E780000F072F8431CBCBF8B232B60002CE1D020
:100E88000022009B1A70DDE707B5009313460A4657
:100E9800014603480068FFF7CBFF03B05DF804FB89
:100EA800240000202DE9F0478E6882469E420C46B9
:100EB8009046994637D88A8912F4906F31D0022328
:100EC800256809696F1A656905EB450595FBF3F512
:100ED80009F101033B449D4238BF1D46530530D5F7
:100EE800294600F035FB064650B90C234FF0FF3079
:100EF800CAF80030A38943F04003A381BDE8F08716
:100F08003A46216900F0B4FAA38923F4906343F0C8
:100F18008003A38126613E4426604E466561ED1B31
:100F2800A5604E4500D94E4632464146206800F03D
:100F3800AAFAA36800209B1BA36023681E442660AE
:100F4800DCE72A4600F05EFB06460028E2D121696C
:100F5800504600F0B1FAC8E72DE9F04F9DB0039371
:100F68008B8980461D060C4616460FD50B696BB952
:100F7800402100F0EDFA2060206128B90C23C8F860
:100F880000304FF0FF30C7E040236361002309932E
:100F980020238DF8293030234FF0010B8DF82A30AB
:100FA80037463D4615F8013B0BB1252B3ED1B7EB33
:100FB800060A0BD05346324621464046FFF772FFD9
:100FC800013000F0A480099B534409933B78002B1F
:100FD80000F09D8000234FF0FF32CDE905230493F4
:100FE80007938DF853301A932F46052217F8011BE3
:100FF8004F4800F02FFA049BD0B9D90644BF2022ED
:101008008DF853201A0744BF2B228DF853202A78D5
:101018002A2A15D02F4600200A25079A394611F8A2
:10102800013B303B092B4DD9B8B10FE02F46B8E74B
:101038003F4A3D46801A0BFA00F018430490D3E764
:10104800039A111D12680391002A01DB079204E03C
:10105800524243F00203079204933B782E2B0CD1A3
:101068007B782A2B33D1039B02371A1D1B68039206
:10107800002BB8BF4FF0FF3305932E4D032239786C
:10108800284600F0E7F938B14023401B03FA00F086
:10109800049B0137034304933978062226487E1CB3
:1010A8008DF8281000F0D6F9002838D0234B13BB50
:1010B800039B073323F0070308330393099B4B442F
:1010C80009936DE705FB023201200F46A6E70023CE
:1010D8000A25194601370593384610F8012B303A8E
:1010E800092A03D9002BC8D00591C6E705FB0121C1
:1010F80001230746F0E703AB00932246104B04A9EF
:101108004046AFF30080B0F1FF3F8146D6D1A389B6
:101118005B063FF536AF09981DB0BDE8F08F03AB0D
:1011280000932246064B04A9404600F081F8EAE7FE
:1011380060180008661800086A1800080000000017
:10114800AD0E00082DE9F04791461F468A680B69E5
:1011580006469342B8BF1346C9F8003091F84320B9
:101168000C46DDF8208012B10133C9F8003023683D
:10117800990642BFD9F800300233C9F80030256813
:1011880015F0060507D104F1190AE368D9F800201B
:101198009B1AAB4229DC94F843302268003318BF0D
:1011A800012392062ED404F1430239463046C04743
:1011B800013021D02368E56803F00603042B18BF2B
:1011C8000025D9F800204FF0000908BFAD1AA36820
:1011D800226908BF25EAE5759342C4BF9B1AED183A
:1011E8001A344D451AD1002008E0012352463946E9
:1011F8003046C047013003D14FF0FF30BDE8F087DB
:101208000135C2E73020E11881F843005A1C94F8F0
:1012180045102244023382F84310C4E701232246D2
:1012280039463046C0470130E6D009F10109D8E710
:101238002DE9F04301F1430C0C46097E85B06E2977
:101248001746064698460C9A00F0B38022D86329C0
:1012580036D00AD8002900F0B980582900F08380D8
:1012680004F1420584F8421032E0642901D069296A
:10127800F6D120681368050603F104012AD51B6816
:101288001160002B03DA2D225B4284F843206F485B
:101298000A2239E0732900F09D8008D86F2920D0F0
:1012A8007029DDD1236843F02003236003E075290A
:1012B80017D07829D4D17823654884F8453055E08B
:1012C800136804F14205191D1B68116084F8423047
:1012D80001238CE01B6810F0400F116018BF1BB28F
:1012E800CFE713682568181D1060280601D51B680C
:1012F80002E06806FBD51B886F2914BF0A22082262
:101308005248002184F843106568002DA560C0F29A
:101318009580216821F004012160002B3DD1002D2A
:1013280040F08E806546082A0BD12368DB0708D574
:10133800236962689A42DEBF302305F8013C05F153
:10134800FF35ACEB05032361CDF800803B4603AACB
:1013580021463046FFF7F6FE01304DD14FF0FF3001
:1013680005B0BDE8F083394884F845101368216852
:101378001D1D1B6815600A060BD5CA0744BF41F03E
:10138800200121601BB9226822F02002226010226D
:10139800B7E74D0648BF9BB2EFE76546B3FBF2F1EE
:1013A80002FB1133C35C05F8013D0B460029F5D15A
:1013B800B9E713682568181D6169106028061B685D
:1013C80001D5196002E06A06FBD51980002365463D
:1013D8002361B9E71368191D11601D68626800214F
:1013E800284600F037F808B1401B60606368236145
:1013F800002384F84330A7E723692A463946304654
:10140800C0470130AAD023689B0713D4E068039B28
:101418009842B8BF1846A3E701234A4639463046E2
:10142800C04701309AD00135E368039A9B1AAB4252
:10143800F2DCEBE7002504F11909F5E7002BACD144
:10144800037804F1420584F842306CE7711800080B
:101458008218000810B5C9B202449042034601D16F
:10146800002303E01C7801308C42F6D1184610BDE9
:1014780010B5431E0A44914200D110BD11F8014B2A
:1014880003F8014FF7E7884210B501EB020307D8CC
:10149800421E99420AD011F8014B02F8014FF8E7B1
:1014A8008342F5D98118D21AD34200D110BD13F85E
:1014B800014D01F8014DF7E738B50546002943D03D
:1014C80051F8043C0C1F002BB8BFE41800F0D0F80A
:1014D8001E4A1368104633B9636014602846BDE895
:1014E800384000F0C6B8A3420BD92168621893426D
:1014F80001BF1A685B685218226063600460EDE7F8
:1015080013465A680AB1A242FAD919685818A04273
:101518000BD120680144581882421960DED1106846
:101528005268014419605A60D8E702D90C232B602D
:10153800D4E7206821188A4201BF11685268091847
:10154800216062605C60C9E738BD00BFF00100201F
:1015580070B5CD1C25F0030508350C2D38BF0C25BA
:10156800002D064601DBA94203D90C233360002075
:1015780070BD00F07DF8214A1468214691B9204CCD
:1015880023681BB9304600F063F8206029463046CE
:1015980000F05EF8431C24D10C233046336000F081
:1015A80068F8E4E70B685B1B18D40B2B0FD90B60AA
:1015B800CC18CD50304600F05CF804F10B00231D28
:1015C80020F00700C31AD3D05A42E250D0E74B6844
:1015D8008C4216BF636013600C46EBE70C46496803
:1015E800CCE7C41C24F00304A04205D0211A3046DD
:1015F80000F02EF80130CFD02560DBE7F0010020A5
:10160800F4010020F8B5074614460E4621B9BDE896
:10161800F8401146FFF79CBF22B9FFF74DFF25465A
:101628002846F8BD00F026F8A0420FD221463846D9
:10163800FFF78EFF05460028F2D031462246FFF715
:1016480017FF31463846FFF737FFE9E73546E7E742
:1016580038B50023054C054608462360FEF78AFE88
:10166800431C02D1236803B12B6038BDF801002068
:101678007047704751F8043C181F002BBCBF0B582B
:10168800C0187047537461636B206672616D653A68
:101698000A000000205230203D2020253038580A0A
:1016A80000000000205231203D2020253038580A03
:1016B80000000000205232203D2020253038580AF2
:1016C80000000000205233203D2020253038580AE1
:1016D8000000000020523132203D20253038580AC1
:1016E80000000000204C52203D2020253038580AA8
:1016F80000000000205043203D2020253038580AA3
:101708000000000020505352203D20253038580A50
:10171800000000004653522F4641523A0A0000008A
:101728002043465352203D2020253038580A0000D7
:101738002048465352203D2020253038580A0000C2
:101748002044465352203D2020253038580A0000B6
:101758002041465352203D2020253038580A0000A9
:10176800204D4D464152203D20253038580A000072
:101778002042464152203D2020253038580A00009A
:101788004D6973630A000000204C522F4558435F8F
:1017980052455455524E3D20253038580A00000015
:1017A8005B486172644661756C745D0A00000000F4
:1017B8005B4275734661756C745D0A005B557361B5
:1017C80067654661756C745D0A00000041544530D8
:1017D8000000000041542B43574D4F44453D310014
:1017E80041542B43495053544152543D2200000068
:1017F800222C2200222C00000D0A000038300000A4
:101808003136322E3235332E3135352E32323600DE
:101818005443500041542B43495053454E443D35A1
:10182800310D0A0047455420687474703A2F2F61AF
:10183800686D656472616D6164616E61726D2E665A
:101848007265657661722E636F6D2F73637269704E
:10185800742E747874000000232D302B2000686CDF
:101868004C006566674546470030313233343536BB
:1018780037383941424344454600303132333435F4
:0B188800363738396162636465660022
:10189400785634129400002000000000000000007C
:1018A40000000000010203040607080900A24A041C
:1018B40000000008280000200000000000000000D4
:1018C4000000000000000000000000000000000014
:1018D4000000000000000000000000000000000004
:1018E40000000000000000000000000000000000F4
:1018F40000000000000000000000000000000000E4
:1019040000000000000000000000000000000000D3
:0C19140000000000000000003254769833
:040000050800010DE1
:00000001FF
