:020000040800F2
:100000000050002021020008270200082B020008EF
:100010009D020008A1020008E9020008000000009B
:100020000000000000000000000000003103000894
:100030003503000800000000390300083D030008F4
:100040004D0300084D0300084D0300084D03000850
:100050004D0300084D0300084D0300084D03000840
:100060004D0300084D0300084D0300084D03000830
:100070004D0300084D0300084D0300084D03000820
:100080004D0300084D0300084D0300084D03000810
:100090004D0300084D0300084D0300084D03000800
:1000A0004D0300084D0300084D0300084D030008F0
:1000B00085090008B1090008DD0900084D030008A2
:1000C0004D0300084D0300084D0300084D030008D0
:1000D0004D0300084D0300084D0300084D030008C0
:1000E0004D0300084D0300084D0300080000000008
:1000F0000000000000000000000000000000000000
:1001000000000000000000005FF808F100B583B0B7
:1001100000F0AAF9304B314A1360314A1360314B79
:10012000314A32498B4204D21168196004330432D7
:10013000F7E72A4B1A682E4B9A4200D0FEE7284B6D
:100140001A682C4B9A42F9D1234B2B4A13602B4A45
:1001500013602B4B02E000221A600433294A9342B9
:10016000F9D3254B1B6813B9244B1B6803B1FEE779
:1001700000F086F9694601A800F022F9224C234BD1
:10018000E41AA4100025AC4214DC214C214BE41AE3
:10019000A4100025AC4213DC0099019800F034FC57
:1001A00005461D4C1D4BE41AA410002C0EDC2846FD
:1001B00000F0E2F8154B53F8253098470135E2E797
:1001C000144B53F8253098470135E3E7013C134BB6
:1001D00053F824309847E8E7BABADECA0000002096
:1001E00094000020000000202CEB00089800002064
:1001F0007856341232547698980000203C01002042
:1002000098000020400100207803000878030008CF
:1002100078030008780300087803000878030008D2
:1002200008B5FFF773FF00BEFEE71EF0040F0CBF1A
:10023000EFF30880EFF309807146414A10472DE93A
:10024000F04182B004468846124B5E6B9F6B9D6AFC
:100250001B6B13F0020F03D00E4BDB6A002B0CDB81
:100260000D4800F0B5F8CDF800803B4632462946EF
:10027000204600F009F900BEFEE74BF6AB6100F046
:100280007DF90028ECD0034B4FF00042DA6202B057
:10029000BDE8F08100ED00E0A413000800BEFEE719
:1002A0001EF0040F0CBFEFF30880EFF309807146D6
:1002B000244A10472DE9F04182B004468846084B95
:1002C0005E6B9F6B9D6A074800F082F8CDF8008056
:1002D0003B4632462946204600F0D6F800BEFEE7EF
:1002E00000ED00E0B41300081EF0040F0CBFEFF3A4
:1002F0000880EFF309807146134A10472DE9F04159
:1003000082B004468846084B5E6B9F6B9D6A074827
:1003100000F05EF8CDF800803B4632462946204684
:1003200000F0B2F800BEFEE700ED00E0C0130008E8
:1003300000BEFEE700BEFEE700BEFEE7704700001D
:100340003F020008B5020008FD02000800BEFEE7FB
:100350002CEB000800000020980000202CEB000887
:100360000000000000000000980000204001002074
:08037000000000000000000085
:10037800FEE7000008B503460C4A12685AB10B4A5A
:100388001068033323F003030344094A934206D851
:10039800064A136008BD054A06491160EFE700F0F8
:1003A8003FFB0C2303604FF0FF30F3E79C00002075
:1003B800004C00204001002001230360014B0B602A
:1003C800704700BF040000200FB400B583B004AB31
:1003D80053F8042B01938021064800F053FB0028B2
:1003E80003DD0146034800F037F803B05DF804EB7D
:1003F80004B07047A40000202DE9F04385B00446FE
:100408000F4643560BB10E461EE0042528462146EA
:10041800ABBE0446384605B0BDE8F08314F9011BAD
:1004280004AA1A4402F8101C0133AB42F6D304AAFA
:100438001344002203F8102C4FF00408E946404604
:100448004946ABBE8046761B002EE3D03546102EBB
:1004580028BF10250023E8E708B5FFF7CDFF08BD42
:1004680008B500F0FDF8024A024B9A6008BD00BFCB
:100478000000000800ED00E008B500F019F908BD1B
:10048800F8B504460D4617461E462748FFF79CFF59
:1004980021682648FFF798FF61682548FFF794FF11
:1004A800A1682448FFF790FFE1682348FFF78CFF15
:1004B80021692248FFF788FF61692148FFF784FF17
:1004C800A1692048FFF780FFE1691F48FFF77CFF1B
:1004D8001E48FFF779FF29461D48FFF775FF1D4C99
:1004E800E16A1D48FFF770FF216B1C48FFF76CFF9E
:1004F800E16B1B48FFF768FF15F0800F0AD115F470
:10050800004F0CD11748FFF75FFF06991648FFF711
:100518005BFFF8BD39461548FFF756FFEFE7314650
:100528001348FFF751FFEDE78812000898120008FA
:10053800A8120008B8120008C8120008D81200084B
:10054800E8120008F8120008081300081813000839
:100558002413000800ED00E03413000844130008D9
:1005680054130008841300088C130008641300084F
:100578007413000883691A888A4201D000207047E2
:100588000268033A012A03D80233836101207047C5
:100598000020704782B00023019300932C4A13680F
:1005A80043F4803313602A4B1B6803F40033009331
:1005B800019B01330193009B1BB9019BB3F5A06F0D
:1005C800F1D1234B1B6813F4003F06D0012300939D
:1005D800009B012B04D002B0704700230093F7E77B
:1005E8001C4B1A6842F010021A601A6822F00302C3
:1005F8001A601A6842F002021A60A3F580535A681A
:100608005A605A685A605A6842F480625A605A6856
:1006180022F47C125A605A6842F4E8125A601A6846
:1006280042F080721A600A4B1B6813F0007FFAD000
:10063800074B5A6822F003025A605A6842F00202D5
:100648005A60034B5B6803F00C03082BF9D1C2E72F
:10065800001002400020024008B5FFF79BFF08BDCC
:1006680008B5104B1A6842F001021A6059680E4A20
:100678000A405A601A6822F0847222F480321A60A2
:100688001A6822F480221A605A6822F4FE025A601C
:100698004FF41F029A60FFF7DFFF044B4FF0006230
:1006A8009A6008BD001002400000FFF800ED00E06D
:1006B8001F4B5B6803F00C03042B15D0082B17D0D5
:1006C8001BB11C4B1C4A1A6002E01A4B1A4A1A60EA
:1006D800174B5B68C3F30313184AD35CDAB21549A6
:1006E8000B68D3400B607047124B134A1A60EFE750
:1006F8000F4A53685268C3F38343023312F4803FAE
:100708000AD00B4A526812F4003F0BD00C4A02FB85
:1007180003F3084A1360DBE7094A02FB03F3054ABF
:100728001360D5E7044A02FB03F3024A1360CFE7DC
:10073800001002401C00002000127A000C0000206B
:1007480000093D0010B5094C2388094A1268D15C9C
:10075800002000F073F8238801339BB223804DF208
:100768002672934201D90022228010BD2801002060
:100778002401002008B500220221104600F014F8D8
:100788000021012000F0B8F808BD000010B50C46A3
:10079800034A0146012000F0DDF8024B1C6010BD41
:1007A8004D0700082401002030B401280CD020B1E6
:1007B800022821D0002500232DE082B3012A01D090
:1007C8000025F8E7184DF6E75AB3012A01D00025AD
:1007D800F1E7164DEFE798000F2202FA00F4144DE6
:1007E8002A6822EA040201FA00F002432A6001336F
:1007F800DBB2072BEFD910E00523FAE798000F22A8
:1008080002FA00F42A6822EA040201FA00F002431C
:100818002A600133DBB2072BF0D930BC7047054D95
:10082800C9E7054DC7E700BF04080140040C0140B3
:100838000410014000080140000C0140012806D0C6
:1008480010B1022806D07047054B19607047054B58
:1008580019607047044A136843EA413111607047D0
:100868000C0801400C0C01400C1001401F2809D94C
:100878003B2806D82038C0B2012303FA00F0044B05
:1008880018607047012303FA00F0024B18607047A4
:1008980004E100E000E100E0034B4FF480321A600D
:1008A800043301221A607047001002401F291CD827
:1008B80001280BD010B1022810D070470B480368EC
:1008C800012202FA01F119430160704708480368E0
:1008D800012202FA01F119430160704705480368D3
:1008E800012202FA01F11943016070471410024015
:1008F8001C1002401810024038B504460D461C2052
:10090800FFF7B4FF00210120FFF7D0FFC5B1012D8B
:1009180006D10F4B53F82420136843F010031360DB
:100928000B4A52F82410CB6843F00103CB6052F80D
:10093800243007229A621A6842F001021A6038BD10
:10094800034B53F82420136823F010031360E7E7E0
:100958002000002010B40024054B1C80054B53F8E0
:1009680020305C62D962044B1A6010BC704700BF2B
:100978002A010020200000203801002008B5074B7C
:100988001B689847064B5A68136923F001031361E3
:10099800044A13880133138008BD00BF38010020C2
:1009A800200000202A01002008B5074B1B68984743
:1009B800064B9A68136923F001031361044A1388EC
:1009C8000133138008BD00BF38010020200000203B
:1009D8002A01002008B5074B1B689847064BDA68C0
:1009E800136923F001031361044A13880133138048
:1009F80008BD00BF38010020200000202A01002087
:100A080008B5FFF749FF02210846FFF74FFFFFF738
:100A1800B1FE02498C20FFF7B9FEFEE7D0130008AB
:100A2800014B1868704700BF3000002030B5141E15
:100A380005469BB0184605DA8B234FF0FF302B6034
:100A48001BB030BD4FF40273ADF80C300CBF234619
:100A580004F1FF33029305934FF6FF73009104915D
:100A6800ADF80E3002461E9B6946284600F072F823
:100A7800431CBCBF8B232B60002CE1D00022009BC1
:100A88001A70DDE707B5009313460A460146034886
:100A98000068FFF7CBFF03B05DF804FB30000020CF
:100AA8002DE9F0478E6882469E420C46904699464C
:100AB80037D88A8912F4906F31D0022325680969E2
:100AC8006F1A656905EB450595FBF3F509F1010317
:100AD8003B449D4238BF1D46530530D5294600F09A
:100AE80035FB064650B90C234FF0FF30CAF80030EA
:100AF800A38943F04003A381BDE8F0873A46216902
:100B080000F0B4FAA38923F4906343F08003A3812F
:100B180026613E4426604E466561ED1BA5604E4544
:100B280000D94E4632464146206800F0AAFAA3682A
:100B380000209B1BA36023681E442660DCE72A462E
:100B480000F05EFB06460028E2D12169504600F01D
:100B5800B1FAC8E72DE9F04F9DB003938B89804621
:100B68001D060C4616460FD50B696BB9402100F0DF
:100B7800EDFA2060206128B90C23C8F800304FF046
:100B8800FF30C7E0402363610023099320238DF8D9
:100B9800293030234FF0010B8DF82A3037463D4677
:100BA80015F8013B0BB1252B3ED1B7EB060A0BD04C
:100BB8005346324621464046FFF772FF013000F0A7
:100BC800A480099B534409933B78002B00F09D8037
:100BD80000234FF0FF32CDE90523049307938DF8E6
:100BE80053301A932F46052217F8011B4F4800F07F
:100BF8002FFA049BD0B9D90644BF20228DF8532080
:100C08001A0744BF2B228DF853202A782A2A15D098
:100C18002F4600200A25079A394611F8013B303B38
:100C2800092B4DD9B8B10FE02F46B8E73F4A3D46EA
:100C3800801A0BFA00F018430490D3E7039A111DA9
:100C480012680391002A01DB079204E0524243F044
:100C58000203079204933B782E2B0CD17B782A2B26
:100C680033D1039B02371A1D1B680392002BB8BFB0
:100C78004FF0FF3305932E4D03223978284600F0B4
:100C8800E7F938B14023401B03FA00F0049B013711
:100C9800034304933978062226487E1C8DF82810D1
:100CA80000F0D6F9002838D0234B13BB039B073339
:100CB80023F0070308330393099B4B4409936DE71B
:100CC80005FB023201200F46A6E700230A25194634
:100CD80001370593384610F8012B303A092A03D911
:100CE800002BC8D00591C6E705FB01210123074663
:100CF800F0E703AB00932246104B04A94046AFF33C
:100D08000080B0F1FF3F8146D6D1A3895B063FF54D
:100D180036AF09981DB0BDE8F08F03AB00932246AB
:100D2800064B04A9404600F081F8EAE7F6EA000815
:100D3800FCEA000800EB000800000000A90A00080F
:100D48002DE9F04791461F468A680B69064693428B
:100D5800B8BF1346C9F8003091F843200C46DDF8B7
:100D6800208012B10133C9F800302368990642BFC8
:100D7800D9F800300233C9F80030256815F00605A7
:100D880007D104F1190AE368D9F800209B1AAB428D
:100D980029DC94F843302268003318BF01239206F7
:100DA8002ED404F1430239463046C047013021D0E1
:100DB8002368E56803F00603042B18BF0025D9F85B
:100DC80000204FF0000908BFAD1AA368226908BFC8
:100DD80025EAE5759342C4BF9B1AED181A344D45B0
:100DE8001AD1002008E00123524639463046C04750
:100DF800013003D14FF0FF30BDE8F0870135C2E77D
:100E08003020E11881F843005A1C94F84510224418
:100E1800023382F84310C4E701232246394630469C
:100E2800C0470130E6D009F10109D8E72DE9F043C0
:100E380001F1430C0C46097E85B06E29174606461B
:100E480098460C9A00F0B38022D8632936D00AD885
:100E5800002900F0B980582900F0838004F1420588
:100E680084F8421032E0642901D06929F6D120685B
:100E78001368050603F104012AD51B681160002BCD
:100E880003DA2D225B4284F843206F480A2239E0B6
:100E9800732900F09D8008D86F2920D07029DDD1F2
:100EA800236843F02003236003E0752917D07829CD
:100EB800D4D17823654884F8453055E0136804F1A7
:100EC8004205191D1B68116084F8423001238CE02B
:100ED8001B6810F0400F116018BF1BB2CFE71368F2
:100EE8002568181D1060280601D51B6802E06806F1
:100EF800FBD51B886F2914BF0A22082252480021FB
:100F080084F843106568002DA560C0F295802168BB
:100F180021F004012160002B3DD1002D40F08E808E
:100F28006546082A0BD12368DB0708D52369626860
:100F38009A42DEBF302305F8013C05F1FF35ACEBE2
:100F480005032361CDF800803B4603AA21463046BD
:100F5800FFF7F6FE01304DD14FF0FF3005B0BDE888
:100F6800F083394884F84510136821681D1D1B68F3
:100F780015600A060BD5CA0744BF41F0200121605D
:100F88001BB9226822F0200222601022B7E74D0622
:100F980048BF9BB2EFE76546B3FBF2F102FB1133A2
:100FA800C35C05F8013D0B460029F5D1B9E7136884
:100FB8002568181D6169106028061B6801D519602D
:100FC80002E06A06FBD51980002365462361B9E76C
:100FD8001368191D11601D6862680021284600F019
:100FE80037F808B1401B606063682361002384F808
:100FF8004330A7E723692A4639463046C0470130BF
:10100800AAD023689B0713D4E068039B9842B8BF13
:101018001846A3E701234A4639463046C0470130FF
:101028009AD00135E368039A9B1AAB42F2DCEBE7EE
:10103800002504F11909F5E7002BACD1037804F178
:10104800420584F842306CE707EB000818EB00080B
:1010580010B5C9B202449042034601D1002303E00F
:101068001C7801308C42F6D1184610BD10B5431ECD
:101078000A44914200D110BD11F8014B03F8014F09
:10108800F7E7884210B501EB020307D8421E9942E0
:101098000AD011F8014B02F8014FF8E78342F5D95D
:1010A8008118D21AD34200D110BD13F8014D01F8AE
:1010B800014DF7E738B50546002943D051F8043CFF
:1010C8000C1F002BB8BFE41800F0D0F81E4A1368B4
:1010D800104633B9636014602846BDE8384000F014
:1010E800C6B8A3420BD921686218934201BF1A6897
:1010F8005B685218226063600460EDE713465A6823
:101108000AB1A242FAD919685818A0420BD120682E
:101118000144581882421960DED1106852680144AF
:1011280019605A60D8E702D90C232B60D4E72068ED
:1011380021188A4201BF116852680918216062604B
:101148005C60C9E738BD00BF2C01002070B5CD1C1C
:1011580025F0030508350C2D38BF0C25002D064653
:1011680001DBA94203D90C233360002070BD00F0D5
:101178007DF8214A1468214691B9204C23681BB98F
:10118800304600F063F820602946304600F05EF8EB
:10119800431C24D10C233046336000F068F8E4E7A0
:1011A8000B685B1B18D40B2B0FD90B60CC18CD50D8
:1011B800304600F05CF804F10B00231D20F0070016
:1011C800C31AD3D05A42E250D0E74B688C4216BFBC
:1011D800636013600C46EBE70C464968CCE7C41C17
:1011E80024F00304A04205D0211A304600F02EF85E
:1011F8000130CFD02560DBE72C0100203001002032
:10120800F8B5074614460E4621B9BDE8F840114620
:10121800FFF79CBF22B9FFF74DFF25462846F8BDCA
:1012280000F026F8A0420FD221463846FFF78EFF7D
:1012380005460028F2D031462246FFF717FF31460F
:101248003846FFF737FFE9E73546E7E738B50023C3
:10125800054C054608462360FFF78CF8431C02D16D
:10126800236803B12B6038BD3401002070477047F4
:1012780051F8043C181F002BBCBF0B58C01870470E
:10128800537461636B206672616D653A0A000000F1
:10129800205230203D2020253038580A0000000018
:1012A800205231203D2020253038580A0000000007
:1012B800205232203D2020253038580A00000000F6
:1012C800205233203D2020253038580A00000000E5
:1012D80020523132203D20253038580A00000000C5
:1012E800204C52203D2020253038580A00000000AC
:1012F800205043203D2020253038580A00000000A7
:1013080020505352203D20253038580A0000000054
:101318004653522F4641523A0A0000002043465392
:1013280052203D2020253038580A000020484653D6
:1013380052203D2020253038580A000020444653CA
:1013480052203D2020253038580A000020414653BD
:1013580052203D2020253038580A0000204D4D46A7
:101368004152203D20253038580A0000204246418D
:1013780052203D2020253038580A00004D697363FB
:101388000A000000204C522F4558435F52455455DF
:10139800524E3D20253038580A0000005B486172E3
:1013A800644661756C745D0A000000005B427573E9
:1013B8004661756C745D0A005B55736167654661CB
:1013C800756C745D0A00000092868E867E84809417
:1013D800B7A08679799180948B99938F7E8A97A00C
:1013E800A0897672A390B2A8A7A184756B81837C2B
:1013F800717C8085815D414942425C7A7D899CC1CE
:10140800BFC0C4D5E9D1C1B79D95C7CEC396716693
:101418006E8A6F292B40726A3E261B35434A11207B
:101428002C3F2A1D3C363C312237665F483D619D82
:10143800A87865899BA78783979281697AA1AC99D7
:101448009D9AAEAEB1C4C2CBD1D5CEE4F3F3E0E100
:10145800E4EDF0E5E9D8E4E9D8B6A6B6D0B596A9A2
:10146800B4AD8C95AEA57B5C71897C796F6B5A4B5A
:101478006968685A65694B4B5B61574B40423F301E
:101488003237464339343A3C1A3335292B2C2A1C37
:1014980033322C2820201A1611241E243239574E94
:1014A8004A49555E5860727E827C82979991887706
:1014B8007C84796C666B726F635A5E685F554B4EBD
:1014C800495968636665696D768599979DA7B1BD29
:1014D800C3C8CFCAC3BAC9D2D7E7EBE8E4ECF2F67F
:1014E800EEEFF2F0EDEDE5E5E5E9E6E1D7D2D8CBB0
:1014F800BDAAB8B3B1ACA2A9A49E928A8E888A86E6
:101508007D84726F7375746A5E57696C61514B584C
:10151800554945504D4440464C474B3C3F3938317E
:101528002328262E233131303A394034312A3446A3
:10153800434341404A505149484C484C47515557FC
:10154800575A5D57575259555858555F676E7070BE
:101558007676717576777A7D80899DA7A7A79EADE7
:10156800B6BBB5B7C7C3D1D3D4D4DBE3E0E8E3D780
:10157800D5DAD4CECACAD1C8C4BEB1B3AAA5A4A26A
:101588009E9DA599A4A399908F9DA0A093979599A6
:101598009E8D888989877E7982887A76818B897EF3
:1015A8007E8386838D867E8B919C9A9397988F866F
:1015B8007F81807D7B746D63605E584F47413D300D
:1015C8002D1F1E1A121B191E0F090B131C22222174
:1015D80022343D3D43414F4D545D5F676E73787BC8
:1015E8008684838A8B8C929D989E9F9D9EA6AA9F97
:1015F800A19CA1A7A6A7A4A9AEAFAEB1B4AEB0AB4B
:10160800A5A3A1A5A5A19DABB0A9A09AA0A0A39FA1
:1016180097979D9B989B9B9E9594918C9190918B6D
:101628008C9193908F938F8C898786838182838313
:10163800888E85858480898B888B8F8A84868A8B1F
:101648008F8C8583847F6F6E6F686769645A575380
:101658004E4C5057585D585A60615A545B626765E2
:1016680063656D6F7070727578797776787B79803D
:10167800868483828689817B7B7E84838983848A2E
:1016880088908A8173717776726F70757E7C7F819E
:101698007B73777B7C7E79777D898989838080805D
:1016A800796D6F747E7F7D828990938C898D908E01
:1016B8008A8F8D949B9FA29FA19E9BA1A6A6A8A955
:1016C800A8ABADA7A79F9F9B93938D8582898C8894
:1016D80085878780767176787D7F8087848A817B0D
:1016E800797779757E7D8183848890978D868485C6
:1016F8008585888C8B898E92928F8582807B767582
:101708007D7D808684807C7675777276787D7F8013
:101718007C7D837E7F817E77727176707373787635
:10172800706A5D5B54595B555C605C595A5F605EDA
:10173800565958555C5E696A6A6B6A6D656366716D
:1017480074727D838A8F8F9694949A9A978D8F96C8
:10175800A2A6A6A29796958E8B8586929297939528
:10176800959699968B8F9689919493908F969B9640
:101778008C87909EA3A2979A9498A0A0A2969695DB
:101788009597999EA2A7A8A49FA7A6A2A6A5999651
:10179800A3A19E938D898B8B838573727D838780AC
:1017A80074615E5D545C5A52514D53524E474444E5
:1017B80044392D303F4C4543453A41484F575555DC
:1017C800556061656A6A75797980817F868B8E8FAD
:1017D8008A868585888E8B84878E928B87827C808B
:1017E8007C736F6F73747B7C7C776F747878757596
:1017F8007275807F7C7E81838B8E898C8D939A9E77
:1018080099969695979DA19CA4A6A6A6A8A29DA2E6
:10181800A6A49FA0A4A9AAACA8A0999E9D9F9F94A6
:1018280095909699929594989B958F7F7C7E8990B8
:1018380080796F70757778747171787A76716E7552
:101848007572747274787E7D776B63636C7573716F
:101858006D73797E7870737476716B676B6E6D716A
:101868006C6565666965605D5D5D5C605A55575B72
:1018780062616265686B706C66656971767A7C7C9A
:101888008491908E8A8D8F89898C92979BA09E9C3B
:1018980099969D9CA0A09DA0A0A5A4A2A09B9B9D5D
:1018A800A19F9DA3A098948E8B8889908E8D8A8AFB
:1018B8008E8D908A827B7A7A76757677787D807736
:1018C8006B666665646B6F757A7B7B747371757E06
:1018D8007F7D818484868986888C8C969C9D989B44
:1018E8009B938E8C908C8B8C8A8B88828079776F77
:1018F8006E6B6B6F6C6E7077797B7B7670706D6AD0
:101908006C7377777D7A7775787B7F808187898913
:101918008583828688838182858C8F8C887F7D7D74
:101928007B76777E7F7F7C7E7D787575736F6D7231
:10193800797B7B7C7E7B797C7C787B7E7F7E8286D4
:10194800878C8A85838281888E8C8F8C8C8C8B89FE
:10195800898D8E9191979C9C9B94928E8B86838B7C
:101968008D8F8F8E8E8C8A8689898A8F8D8B8D91AB
:1019780093939398988E8983868C898886898A8799
:101988008584838186838384818282818284818124
:10199800888A898584847F78706F6F74767676718B
:1019A80074737A7870736E6C6D6B6C6E7676797A08
:1019B800716F707170716D6A6E717A7C77757776F8
:1019C80074716C6F737474746B6869696C71706925
:1019D8006B7375706B6667686D6C6B686C72797E1B
:1019E8007C7C7573777A7A7A7D858A8F91929494C4
:1019F800918E8985858A94979A9A9D9798968E8ACA
:101A0800888C8D8D8D8D909595938E8B82817E7A25
:101A18007B79807F8784827F808080847F7E7E85BB
:101A28008686817C7D828481817F7F868786857F8B
:101A38007C7E808286888786898D8E8B85858A873D
:101A4800847D7D87888985858282837B7A7777788C
:101A58007A77777B7C7E79777879757678767778F8
:101A6800787E80807F7A787D807E776F72737E80C3
:101A78008285838079787677767A7B807F7A767AA2
:101A88007B7878717270716F6E727577736E6D6F27
:101A98006B6966676A6D696B6B6E6B68686A7A7684
:101AA80077777A8188837D7A7A80848381898D9318
:101AB8009494908F8C8F8D8F8E8C908F97969A9A06
:101AC8009593928F8C8B88878A8783878E8D898957
:101AD8008184898F8F8B8B8C918E908E8F8B8B8A44
:101AE80088858589838480847E7E7E797A7C7D7EE4
:101AF8008481808088838482818182807A7D797FD5
:101B08007D7F78716E6F75716F6E747375787C7B7D
:101B180077737174716F6F7079837E797972716F71
:101B28007472767D8282848B918D7D7474736A68F9
:101B38006A6A6D73706C706E6768686D6E65696AE5
:101B480067676B726F6D7271716E7377787E898F4C
:101B580099A0968C94A48B7C7D7B81849D9D9D9976
:101B68008E96939D92858680807B655D4C50576BE1
:101B780093B5CACFAE95A6A3A5969695858F967868
:101B88007A5E49434D626C8D82908FA49A93B7C157
:101B9800CDD2C1A9B3A7A2988985879B977F748066
:101BA8006E5147393E4A39222844536C8A988F84AB
:101BB8008076707B91A7BDAACBE6C28E605B5B2D59
:101BC80031453E3522433A463D386A7265657E9412
:101BD80098A5B3ADA6ABB4B6C4B5BCD2C7AB877530
:101BE800565557555B4E53504F495F696D7E6C7E15
:101BF8008D90807B8D90A29C81868C878A88959514
:101C0800858A7E71686A68483C414438415A6E77D3
:101C180084989CA4AFB8ACB2AFA7A6ABA69BA0A86B
:101C2800A0A09985867F978C8A848A83687569774E
:101C38007B7876888C8C898E86869B82818D919321
:101C48009BA7A6919A8F7781807C7B8E94898483C9
:101C5800827568656F7C7E85837F827F797E858DBE
:101C6800868596999D96928374868481776973692F
:101C78006E68616D717664575F5A52656A6A5B591E
:101C8800635B5F63718E948E83837D736D707B70ED
:101C980073757D7B71616467616C7A7771807F8110
:101CA8008D8D8B9698989A9F87848678889199A12C
:101CB800A5AF988C8A8087818C817E8A8B8A8D8457
:101CC8007E837F777C857F818489868A87847C88E8
:101CD8007B798F8A867B8C7F7879788D94A1A69B77
:101CE800A799999A8A827A929191A1A196A19677B9
:101CF800778B81727E7B75838C80828F8A767970F0
:101D080076888D867E80716E705F5D6C726C586AA5
:101D18006150564F5053605C5F76706A7273888763
:101D280090968993847F8A888F88858F857B7E7A31
:101D380066645F595F6E6A6C78797C888F89909445
:101D48008D7F867E6E777F7E7E8183858590858771
:101D58008B7C7A786D60566972727D7F93928A8ED9
:101D680084897F798989959297A3ACB1998D8D895A
:101D78008A8884888E8F83828287898F9CA599849C
:101D8800828686838683877C7E878E93746B6B6955
:101D98006D666F7B7C7B717A8586938D8C8D79756A
:101DA80068655A545E64696F747B879A9D8C9290BB
:101DB8008E85857E8683778392A296948987848789
:101DC8007E74725C5A6B6A6979817F7C8B827F7FB3
:101DD800777063645D6C7E7B8B928C81818A877E51
:101DE8007971727366656E7D6A78858488929D8F35
:101DF8008C7D737985777F8C8F929C9D9C9F9C9B13
:101E08009A9B898283806B736F62677A8186898DDA
:101E1800917F80696B6560545673747D8A9A9A9035
:101E2800989492937C80776C5C6166656C747B8611
:101E38008E90A89A9B83828B827A738E877D90A0DE
:101E48009A998E89879386828B7C736D6C6A6D7084
:101E58007C7A7F7A8B81776D697066686A837D7E0C
:101E6800808B8E91958E9594817A6D5F55505E54D6
:101E78005C6076828A97B0BAA49189847B7C727FF1
:101E88007C858C9EABA39D999593888381776E61A1
:101E98006F69757C8A8C918C92978779726F625E74
:101EA80055646B706E8A8C86889093938E817F714F
:101EB80063535C504F576A738C8DA1B1A6958B8F75
:101EC8007B7D697977706E8B8E95A1AAB3A3A39752
:101ED8009884735D635B5F627E7D808686A38C8752
:101EE800797F6F695F6570777D949E888B89948F01
:101EF800969286736F60675B55606E8179888B9D5B
:101F080096909188808680818A807C868E8F9BAA15
:101F1800ACA09E9A908C75736F655B5A67677A7FE1
:101F28009691817E7D72706856585A565C7B7E8980
:101F3800828E8F8E8E8C89745F6161556275878100
:101F48009394A2A38F8A8B837B7775857D7478861B
:101F58008A8B989897999591909084868674646FE7
:101F68006B7A828C917D807770666A6D665F667524
:101F78008267697E878F8F94A09D897E7B7B625D57
:101F88006873777F8E9F9B8B8A8E8F878A8A8678E5
:101F98007586889297989090958E8E87817F85799F
:101FA80072727E706876858E797F7665635F606C05
:101FB800767F8288818392887F7F807F857C70741A
:101FC800725E4D5A5D677B7F84879297949CA09739
:101FD800948A8D94968C8F999D919A9E8C827A6E14
:101FE8006C746A676564505D75928D828C8882799D
:101FF800787A88797D888885888A7B79787B7276F3
:102008007A726B615E6368616A67747D828F8C9394
:102018009797999F9899A49C858897918A86848791
:102028008A8E8A8E8E8885786D6B72716B74837CCC
:1020380074797B7669646C747E7A858C7E7E8D92E9
:102048008A8A8380867C73818784758594877F8458
:1020580083777874706F72737974768C959490978F
:102068008B7E848278818683858D81767D7A706483
:10207800757B7A7575746D64607778737D827A8103
:102088008F8C8993999491908D928C7C828A806FA1
:102098007C766E797B807C81787C7B6E787F868687
:1020A8008B847E87857A7F786B7484807B908D762D
:1020B800787E73696B75736C6A7878697A8D8784B2
:1020C80093959797847D8585737C7F737C8F8F85A7
:1020D800958E7C7E80797D797D8181808A898697BD
:1020E8009A8F8D9C8F87837B6D716B63737F7772FB
:1020F8007A6F6F72726F6E687A8C898B948A818A14
:102108008A868C91888F8D7F7D7E77737E74647DBF
:10211800837C7F8583756F79827671808C8E999D9B
:102128009A979A918E8B84807F746F7B776B737C80
:1021380071777F827579766F64697A7275848F8B0F
:1021480090908E828179767D767B8585727F837784
:102158007777787171797F7A818B88828E908B9767
:102168009D8E86887F81847B7C8F8E818B8B7D770B
:10217800726A5F676A6B747C8A85868D8D8D8B86A3
:10218800777F7E7D7E7A777A817278898273767896
:1021980070707B7B7A8190959099989698978883B0
:1021A8008583848B7D7C8677737C74626A74747291
:1021B8008082797983897F87878A98998C8B8E84A6
:1021C80082837870837F6C787A6F6E7670636D73B4
:1021D80072747B8680818E9395989C9494908F914D
:1021E800877E817B656B74736C76786D717C7A758C
:1021F8007E898A818B8D8F98988C86837A818A765E
:10220800777D686A7776686F7C706E7C7B74788679
:10221800847E878B989C97928D8C878C847471812F
:102228007872807F7172756562707E7A7E8A8F8A15
:1022380090969294988A898D827F78716C807F704D
:1022480078807C6D726C5E6674727179898A97A1E8
:102258009A9796998B877F787D756C7B8672717E4D
:10226800756E716F70747D7C7B838D8D898C8E907B
:1022780093928F8C857F7F81797A8679747D756D4D
:102288006E756C6470757478858883929492939057
:1022980088868982817C7678877969787E75758069
:1022A8007066738282858C898591988B8C8D8586E2
:1022B800847784847A7C8C806A7D817870726C687B
:1022C8007B847578868E868690888E948E81857FAD
:1022D800787E74717D85718088736F7979646F8079
:1022E800726D7F85918A8588999E8181968B80877A
:1022F8007E747082727D7277827D69678E7E7E5E63
:102308007997857D837E8E9D8F8D90858793787F45
:10231800809A78525C6B7D657F787D84878B697D38
:1023280089636D8D86949A937C7A7F92997C697E75
:102338008C69867F817E7B745F5B5C7794B19389BF
:102348007795947A6F6C8AA6A9916A4878A8A85854
:10235800597E8B7E6A5B567F84585992A5AB8989D2
:10236800B1BE8F6880A39684787C715C5D6C969C06
:1023780080516D7F655761717B94856B7E9BAFA3A0
:10238800887F8FA49B907A71819F905F6B7B6F6B26
:10239800636E7560557F8C79777EABB3907F7D8F48
:1023A8009A94857A88808A878980807C605263794C
:1023B8005F6375837F82909083918F839A968C85D3
:1023C80070809579677B92787F856D697A7C67687C
:1023D8006D6E748B8084928D9497948D7F8E9368A4
:1023E8006C7673899377707E807576886B5B6C8E5C
:1023F8008068868C969D91717E977E7C907F7C8D7F
:10240800807677746C848071727F746A767B827749
:10241800929D8A87817A96937D7B8C867077727578
:1024280073726E88856F72838B706B7886778491F0
:102438008482A3A37E7F8891A382668488756C7743
:102448006D7068788E74776D69818B7E7E858D8FCF
:10245800938E9198A2957D806A828871797B6D733D
:10246800776A62758371736F84727D8E7F888F9AA5
:102478008D93979089827C85827577887A6779753C
:10248800787A807263646B86798089839E9B818861
:102498008A8688918B898C75898B826A7184777B0F
:1024A8007A6B62646E747588838B86857B909A8458
:1024B8007C898A8A948B7C828D6D887B7264728415
:1024C8006A606A7A77908D7A7982838C8696838718
:1024D8008A8392857B8797827678707581756F601D
:1024E800788471758F8579827E7A8E9281868889C3
:1024F800859383838C7A718277727B7E6E70827506
:1025080074748D837C8581849594857D7E738F9981
:102518008176858D73716D6E77867D75727E6B7928
:102528008993827C8F88909185808C838C81726658
:102538008C7D6F767F87737973656A7C72798C97E7
:1025480084978E8B879698868B7B828D8071837912
:102558006870836D6775826B607472738B8F8C93F0
:10256800948989A0928C8885878E7D6C79886E790C
:102578006D64646E76626A718A7E868D8D838F90B3
:102588009D9C9D928F857C887A83848A6B737776ED
:1025980065706C6465717D768089968E9C918A8B56
:1025A800998E8A757E857D797E836D817B756B704A
:1025B800776A6D7B716C6E848C9693959E9A9A85DA
:1025C800847B7D87837884806E7D826A7579746C5C
:1025D800707A7771798F86888F939090919C938485
:1025E8007A858077747D6C6D7A7375707B69757583
:1025F8007A767A848686978E808B9095918A7F9357
:10260800837C76806D6C7976726E7B6B6A7B7D736A
:10261800828B917F8C95918B928E87877180897E32
:102628007B9681717F796F6A716E6271827674842C
:10263800847F9197938E979A898C83797B7A727C21
:10264800836E8280716F70736D73807E6F7B8C82F6
:102658008A98889297938587847D847A7C80846E13
:102668006A7F84777E83736E717B6C7086847D97B6
:102678009C8B94947F888F7D827C7E7E837C787B04
:102688006E71697B7265818B7D78898B7C858F887B
:10269800848B8A809786798A8480807D76827D7F04
:1026A800736766626D8B7A6C8B8B86859084869255
:1026B80091868D8B7E7B7F78788A768280827E7306
:1026C800766D6F747A687089777CA291889592800C
:1026D80081877C867A838389897981827D72767302
:1026E800787C796967767F758A9F8694998B898EBD
:1026F8007C767979787D787D72799E888674647124
:102708007C71687A7A79898D84828F908098908795
:10271800897B7B787668788086846D7E8786887AE0
:102728006C7D857D828D7F828F8B8982878385846E
:102738007E7A7F797F796F696672727E77898A8FF0
:1027480098807C8D877E888C8386837B8871787758
:10275800838B867D70746668636174817D87939FBF
:10276800989E998C9598887F82787E776C717D7415
:102778007E7C757B7070727174726C6F8A8B8695B3
:1027880095A7A6A491848B7D8079706D7477667304
:102798006C676E6F827E7B7D7D79807B7282939180
:1027A8009DA69FA09C92897F706D73786F716C6AEB
:1027B8006C70726B777F837B858D83868C89888F1D
:1027C8008C879B948D938179787D7271716A716D14
:1027D8007A776F72706F7887888C908D8D9A9286D1
:1027E80082847B7F7C7688898682857876757B77FC
:1027F8006A6A757177857D828393929E988E8C879D
:1028080076736E6B717B8580908189817F7B6F7118
:1028180075757282887D878D83918A8A8587787B92
:10282800806F70717A79837F80888384807A807ED4
:1028380077878981838987838B7E77807878837B84
:10284800777E8A7F7C7972787385867E7E807B7EB0
:102858008B8785948B828A8781807F6B79706F7B69
:1028680087888387797F74767069708281869A9663
:102878009093968C89898480816D72747072798640
:10288800797F7780837C7F6F6A707270869084907E
:10289800A09595988C808176757F7070777F7A8007
:1028A8007C7A7D7679766D717A737A807D82969856
:1028B8009CA3998F8E837782767272818081827BC6
:1028C8008073767067656E6B6D828580929592993C
:1028D800969091907D877D70707D8481867C7C78D0
:1028E80073776D626865687B86828D948C95999103
:1028F8008A8C7E848B817F898C84857D7D7A777AAA
:102908006F5E636A6A7B847F82908A8D978F8787E0
:1029180077748179788293898E8A7F8579796D63D6
:102928006870717786817F8F8C8F958A7F827C749F
:10293800817D767884858789868D8179776E6F76B3
:10294800717481818090948C9191868581727B7B52
:102958007171808881847D7F7A747D77716D7172E1
:10296800808B85939D949193888182777679716E17
:102978007B8A7F807C79786E7172706F777988979F
:102988009192A0948C928B81837D6D7D77757989E6
:10299800827C80757F6F6E6F6A616D767C8F959192
:1029A800A1A68F9592897C81737278727A818B7EC9
:1029B800837A7F776A6C6C63697577878B8F97AB3F
:1029C8009AA09A8A7D7D7B727973797B8D81867FC7
:1029D8007B7E69686967617178848D9596A8998FFF
:1029E8009385807781737873767A898E848B7E7DE0
:1029F8006B656E6A626B707B879094A4A7848981EB
:102A08008080857F818B818891A1918A7D766D6395
:102A18005F5A5F5C6776898F8E9BA68583877E74F5
:102A2800727465786F75889D9E9D94848A796D6DA2
:102A380070646F7C94A1A0A9B49B808A7B746B6B33
:102A48005F6C706C828E94878D7B756E58575C4E68
:102A580055676C84888B9CA68E918C8F8B8581851D
:102A680097868491AD9F998A808777696E70656D26
:102A78007480827F889471636A6956586653655A70
:102A88006BB1CFA1827D7B9C9A9A8D7C8A9390971B
:102A98009889809ABDB69C796E614F4D646147658F
:102AA80084A6A18D56555D40666795A77787ABB715
:102AB800AB9C8C5F818686B5A6957C838365739372
:102AC8009D8C645F3B3D1D1B2318373FA0ADAAC6F4
:102AD800E1D8C6CCBFCEE1E9DEF6E3E3D6DBD8AE7B
:102AE8009A6D7F59322F49615640415747484037C0
:102AF8001F26140912130A10271D2E406E6A5D55F1
:102B08004F4339405E839FA7A0CAD6D9C8BD9390CA
:102B18008987A4BAC7CCE6DBD1C8ECEDF3DADCF2DE
:102B2800F4F5E7EDFBF8E6EBE6F4D9DABAC4A284EB
:102B380099A5B599AEA3BB8B776C4C290F272D307F
:102B48002B4658674E5A76714A311E1C1F060309D8
:102B5800290C111E2A374F5A3015010B0109062876
:102B6800395D504D6C62572A4027332A3C587269A8
:102B7800627C767D657A6A6F4B4E54463D42514C75
:102B880063606E6F80656859574C545F6280697DD9
:102B98007E8E8492968667658087919CB3B9CFC7ED
:102BA800D1DBEAD1D6CECACFC4CBCBF2E0E3E7F093
:102BB800E1E7EADCDAC1CCBCBFC0CDD1DAD4C3C905
:102BC800C4B4959384908B8B899FA79299928F7F99
:102BD800917B673F3849484C51576C826B8B959570
:102BE800706E5744574B4F4E6F5E6D6559465A6627
:102BF800472E09202A30323C3E513A2F3539342CA1
:102C08002C1A2A2926142B3342493F414A6853403B
:102C1800242F484955636B8C97817E7D7E74796932
:102C2800778B959192A09EA8989DA4B8B4A8897610
:102C38008B94A6B0B6C2D6CFCACACDC3C1ADA4B212
:102C4800BABFBDCDCAD4C1B5A4A7B0A3917392A78A
:102C5800ADAF9CA9BFB49A8B8D888D81717C7C792E
:102C6800727A7C89938B878CA79E86535988888C27
:102C78008693B1BDB2ADADB2B1A6908B949D91884B
:102C88008D90957A6F6C8A836F4421373831252768
:102C98003F574C49383D4546302B3D423E3E4D500E
:102CA80065565552666E675238557478797884A19E
:102CB800939787898E968C7B9297938B9A96A9A9DE
:102CC800A3979FB2916F3F42606E72747D9C948708
:102CD8006D616F756E586F7676707D7D92958E8971
:102CE8008DAE9887596181909A999DC5C7BFB9AB38
:102CF800B4AEA9899AA1A39DACB4C6CECAC6BCD7A6
:102D0800BCA7736D8EA1A69F98B0AD9E957B80845D
:102D18008B65645D605964626E81726D5D887E6AE0
:102D2800393156646B676A89927E7B6974778666E7
:102D38006D8292908B8A8C9B878F84A19D8D636016
:102D48007988908C8D9EB1929075786D765C525E84
:102D5800686A696F6B83676A57787A6E462F4A523A
:102D68005E565C66876E684648475148415A5F66BA
:102D7800555F6287777B6F899180674E728AA5A4B9
:102D8800B5BCE2CFC8B4B0BDBCB5A6B9B8BAACA89A
:102D980096A59090818B9C8D7A40525A746A717C6A
:102DA80096937B6F6B827B7F749090958385899BCC
:102DB800A398989CB2A4A176869CB5AEA5ABC2C6D2
:102DC800B1A6A0B1A3A396ADAFB7ABAA9CA5ACA67C
:102DD8009D97B092804648526668636F888F78687E
:102DE8005562545038494D55535247475B5B584FCD
:102DF8006C606039323F555854657B8F7C72606DCA
:102E08005C5C4B62717A8278778198928E82A19706
:102E1800956059657987738084A4908862736F740C
:102E2800645A666D89777A6D8C888A7C9B969172D4
:102E380057757D9C7C94A2CAC5BFAFA3AB9F958EE6
:102E4800ADB2C9BBB7A1C0C6BCA7AEBBB6A8769287
:102E58009DC6AFA4B2CCCEC2B1ABAB988C76928CE7
:102E6800A1A1A08EA0A8A1928B917A6C3B525A7F07
:102E78006D5A6B77795E4D42594C46232F444F5516
:102E8800534C5A695D5249654F4B25273E53664E50
:102E9800627E9D9F9381938C8066627685887A6E28
:102EA800697A74725B746A644235485A7152515F28
:102EB800848A8C7A858274574554637D7B82819499
:102EC80094947D8E948D8466737791838296BAD319
:102ED800CDBCB7C9C3B5A3AAAAB6B4ACADC0C4C764
:102EE800BBAFB99B9A6C6B6F838D758897BEB6AE76
:102EF8009DA19B8C6A606D6D807E7271837C8376E8
:102F0800847F75583A474B6D5F6D798F9D988D9585
:102F18009D8D886B6C6772767B7F909D9E9F989A3B
:102F28009289695C4F55554343495F7780797E772D
:102F380071675C53443C4241445F687175766F76B3
:102F48007068616065606966778699A2A7A59F9C8D
:102F58009B95959586818286878E8A949AA9ADA33A
:102F6800A2948E8D8E868E9185888C8B969A98A148
:102F7800A29C92948E8683807C7E837E87848885BB
:102F8800837369655C5E5A5E637070716E7D78717B
:102F98007A7971686A6D74777B7F8777818C959B66
:102FA8009593858A86888E958E8B91868B86807B75
:102FB8007876747C7D7E85868A8D919D95968980AC
:102FC80081818582847676787475828684827E7B18
:102FD8007E8480888A8F8C92929D9D8E9390928E0B
:102FE8009199979696909289867E7D7B7C7C747168
:102FF80073756A726E716E6E66686B6B6666726503
:103008006E6D68696B6661635E59595952535864AD
:10301800666D67696B65696C75737570777C787DAB
:10302800828B8581858C9394999EA29E98A2A9AD46
:10303800A49E978C8D84817F79716E6D6D72797580
:10304800737D797B807F83858382878B8687878161
:103058008688919CA2A09C999796939E9A9190920B
:103068009493928E8B90878587878C858982837AC3
:103078007A807C7C7774737B7A75787C7374746DD2
:1030880071746F6C70736E696C6B7474757C7D7C15
:103098007171706F6B6F7371777372767771787DFA
:1030A800797C7B7C787474747B7B746A6D75726FC1
:1030B80070747576787D838A8B8D94938F8D928EBC
:1030C8008C8684858B969BA39D99939392909595D6
:1030D800918F8C84838987828183868A8C84898A6C
:1030E8008884899391928F89858684848589827B57
:1030F8007F82888D8C827F7F797D7F7A76797D7ECD
:103108007A7E858581756D727D7D797D7A76747616
:103118007E858D878B918C8789887D7D7E867F874C
:1031280087848881807D86857C797E7F83817F8680
:1031380086807A7A7D7F827C7A7B7D827C81858895
:1031480086858786827C7472706D717279778283C6
:103158007D7B7E807C7F777774777165686F706F11
:103168006C737475747276757B75716F7372707326
:103178007B807F817C797A817F818487868685833D
:1031880086898B868B9299918A888D8D89857E898F
:1031980084807E7F7B7F81808687858689878983F7
:1031A800858086838A88848186929298929793965E
:1031B8008F9390919292908C8B86897F898A8A7F4F
:1031C8007E7A82817C82848987897F8785827D80D7
:1031D8008181838283818781837A7E8385797579EA
:1031E8007A7C7477778278797677787677757A7952
:1031F80075727674726F7773797C79746F75797B71
:10320800746F7078737071737476716B746E686FA5
:103218006F67636D7477757376717079848D897B48
:10322800858977706B7381877F77686A7E757E750D
:103238007E78789A8E8B8D87868C95ABA4A98770BB
:103248008396C4BA9A92A5BAA9B3BF9B9F7C81837F
:10325800707D5C707D76836D57584354717F868A84
:10326800939B8EBAD8CBDED9CDB8BDB1C6E1C99D86
:10327800958A91926B553C385E7A542D2C5166652F
:1032880035243E40311A1E2321371F2A5654462B17
:103298003B677451334B86A17E4B7C96916A5E895D
:1032A80090A896ABB0A798A8CBC7CCB2C3D9DEE399
:1032B800E2D1C8DEE5E3DBC5C1E2E9D4B2ABC3C005
:1032C800A298AEC1A57C798D8C675E72835A4742FD
:1032D8003D524D4E504A5D5F4A3E3C423E3F40495A
:1032E800544C4552556E6B636E606C79785F5A6BBF
:1032F80060636766665A655D4F473E34383F3243C0
:1033080043494734514C505D5062605C505F787956
:103318007B6D7D9AA58E787F83846B778485917B7E
:1033280082787D797C917B97948F8B869A94A2AED4
:10333800AFC6D4CCC7C7C1B7B3B8BDBDCDBFBBBA84
:10334800BBBDBBD3C2BCB8B3A297A19E9BA0909BA8
:10335800B19B7B748A7D715F6C808B7F7579667495
:1033680068867C778266686882898D848B9D92984E
:10337800857E7F65645964605B493940343316380B
:103388002C222321240C221326302D42435D57463C
:103398005C4F523C4A66697B71877F8D808F978C22
:1033A8009D959B7D959192A59DA8A5B7B29D989551
:1033B80096827E898E9185897682757891868A7DB6
:1033C80084707C8D859AABAAA2AFB0A6A49E9A9B66
:1033D8009EA69DA9A3AA988D9A8B9E91999A9D893C
:1033E800858D8D98A0AA98AEAAA0968F97837D8A7E
:1033F800858C8A8972747E677F71776D6C645E7163
:103408006B747C83788B968E7D82857C72737B88C7
:103418008988846F8172807B777673796C756B711C
:103428007C897885968D79707368615B5F63656563
:103438007058595157635C625F5D54605C59607A9B
:10344800757889877B74746666696A5E6E6D786B59
:1034580068696B7F6D757673626D74787C879491FB
:103468009DABA4948E84897A7E7F88889792888F72
:10347800809592948D90898D968D95AABCB5BFBE86
:10348800BBB5B5A9A49AA2AAA7A2A7B3A2A592A7B9
:10349800A1999596897E9B908E95ACA5AAADB1AA67
:1034A800A99B8A8E8D93888989907C8077817B6F90
:1034B8006D63634C60534F526D6E70766D695F60DB
:1034C8004F4D495350524F625858565868555E539D
:1034D8005A4A5B63616D7582878B8D8D7B7D6B66C8
:1034E800595F5E5A56635C50513C5148483B4741CE
:1034F80040555258647D79838183828279797F8DA2
:103508009692939FACA2AC9BB5B7AEA9ADAEA4BF43
:10351800B9BBC1DAD8DDE1DBD2D0C5B3B0AEB6AC49
:10352800A6A1B1A2A28F949B898577826C717880BD
:103538007F909794A19E93908978777783777D760B
:103548008D8B827C77947F837980746D7A7B7C8085
:103558009097A2A495847F7069606B6966606569BD
:103568004E514559514A3E3E422736353F405A62F0
:103578006971645D595446495257575F5B72686B6D
:103588006B79867C766D7E646E77848496AEAFBEEA
:10359800B9B3A7A4948C8B8E8C8C8692948B938AC7
:1035A8009B8F7F6F7D706375757D839E98A7A59AA5
:1035B8008E8C8A818788918D8E94A69EA79CABA6B7
:1035C800999192997B918B958EA8ABAFB9AAA19549
:1035D8009986827B86817F7A887B7D73737E6E6E07
:1035E80067775762626B71829396A7999088917FEB
:1035F800797685858581948F8E8D82917D7C6A7D93
:10360800646373767A7B8A8A9F968D8585766966E8
:103618007478796C76756B6E637B6C6D5A665647F9
:1036280056556265767C90897E6F736A5F596571BD
:103638007066727D74827485747469756D5E706D60
:1036480078798D899EA49784847E72696D76786D69
:103658006D7D717B6A7C716A63686C596766747387
:103668008588A0A69E939397938F909C9F9A98AFD6
:10367800A6B2A5B1ACA3A09BA1879499A4A0B2B20D
:10368800BFCCBEB3AFB1A49C969EA29F96A79B9AAF
:103698008C8E9588857C826D736B747F8481879D01
:1036A8008F827A7F766C5F636E6F627374746B63FC
:1036B8006F635D4756464D4F5361616968848377F0
:1036C8006B6F6E61586163655E646A6C6A5E706B8D
:1036D800644F5B504C514E555A6B69888B80757599
:1036E8006E6763666E797B787E848878857F84755B
:1036F8007F818291889092A9A4B5C6C8BDBBBAB093
:10370800A5A0A4ABACA7A7A6AF9DA5A5A1908C8E9C
:103718008B9180848A938A99A4958C8584796F7219
:1037280070777A757170796D7D757B726F76717E41
:103738007278768E9399A0A2A199948583808182CC
:10374800838577767D7279747568686463756A6B4A
:10375800677E7E7D8981867F7C747179777F8079A9
:10376800717175717A73736B665F64746B6F6F7F59
:10377800828B8F8C92908F8A8382857E7A797978F2
:10378800817B7A737671686B667775776D777F82E0
:10379800877E7F7D827D79747A7874766D6A6C73A2
:1037A800757172787975757B7F838480828A90962B
:1037B80098959D9C9A9086898586837D7C82857E56
:1037C8007976757376726C7171716F6E73798283A5
:1037D8008B8E8B898C93949591918F92979D9F9FB7
:1037E8009E9E9E9B989799908E91989A9E9FA4A929
:1037F800A5A1969D999798938F9194938E8A878186
:103808008684827C77736D6E72736F706C6F6B6970
:10381800676D736E6E67656B71747171726B6F72C1
:10382800706E6F6E6969666A6B6A6972746F6764D5
:103838006662615F5D595C60605D605F626665637A
:10384800656867666A726D716C727D797A7D868447
:10385800868683868F94949090919197959B9EA04D
:103868009E9A999A9EA2A4A9B1B1AAA6AAACAEAAF8
:10387800A59FA6A9A2A3A1A09B9995928B8B8A89A3
:103888008381817D7A788183857B7A82847F787948
:103898007F898784858681838181818486827F7BF5
:1038A8007F7E7B7A7D7F7F77717173726B63646AC9
:1038B8006D69656A666766666769696A69656B6E78
:1038C80070696F767B7C76777B7C766F707A7D7C8F
:1038D800787C7C7B7A7476787B797B7676787C7D4D
:1038E8007D817E837D7A7B80827A797E86838185DD
:1038F8008482837E7D80807F847E7E83827E7980C1
:103908007E81807C838787827F858D918A8B8E8D4F
:10391800918D8C8E939395918D8E8D8C8A8E8E8FB2
:103928008C8783868A867F8084817F7E777175778E
:1039380078757A797B7A767A7A7F797F81848A88B2
:1039480086898C8888848B8E8C8B8E8D918C8788C9
:10395800888D8A8D888A888B8A8C8F8C8C858482C6
:103968008385837B888A8785817F807D7A797D7945
:10397800757C777A76727475726F696A6A6E777613
:10398800766F71766E6D7071736C6E7074766F6D24
:103998006F6D6F727373676A6A6D726D7374716934
:1039A800626F696D6D67766D6E6B75636C70748729
:1039B8005E7D736D6C6B86848B8B9E8A7F8F848A09
:1039C800998E95969CB19F97959EAD9898AAA39F1E
:1039D8008D82877E8B9C9C9FA09E9EA7A7A69F8278
:1039E8008DA0B3A87E8099B2AAA3A3AAA59B876637
:1039F80071686C76738584888D8C8881827C6E660C
:103A0800777E7D7F7C83757C827778766F646B6642
:103A180063636262606362635F646865595C5451A2
:103A28005955545F6D65646D75706B616466616549
:103A380070776E6D6E787C8481878B828B9096917F
:103A48008288878B928B9197978C8B8780857E7CD9
:103A580086818592979E9895887C7C869398929586
:103A6800938B96908E8E8A8B7C797A716D6A7B7F28
:103A7800899080827F817C7C7B82858F9C9CAA96A2
:103A8800938A788584817B7B898C9492888F817EC8
:103A98007E8086786F686767737875716F737173E6
:103AA8006B6E71706C666E707376717A7E808787C4
:103AB8008D8F8F84848389958F8D8A8A8794908946
:103AC8008989857B818386837D828084918E8D8A96
:103AD800867C72717883848A857E7C878271747211
:103AE8007366697470746762676A78777A7D7976C5
:103AF800707069757E7D7A7370777B6C7578747079
:103B08006A74767A7A7479767E837F877C7A6F6B2B
:103B18006E76837F847B7A7D84817E8075716F76F3
:103B28007C7C817E82848696929B9B988F8C9291D6
:103B3800A19FA6A09BA0A7A39BA0959592949998B6
:103B48009A99969596A7A2A4A69D978A8F889497E6
:103B58009C92878F8D8C80807872716C7074737072
:103B68006B6E6B7476757E77766A716D76817E7F03
:103B78006D747B7A706C6B63656265696B6B666488
:103B88005F686E6871686255555F5E6A656E645DF0
:103B98006E6F6F6868625F63616D74747573727756
:103BA8008681898F8A84828D87939597958C95963F
:103BB800929291888888878D96989594928E999CF0
:103BC800A3A69B95919A9298A09F9B929798989557
:103BD800958D84807B7C84857C7C7D787D83858FB6
:103BE8008D89818789888D8C918985858B88888046
:103BF8007B7F787980877F7B7874737B7881827507
:103C08006769726C767277706E6B6C7072716769C7
:103C1800696D70756C6D6F716E7573808880807C4E
:103C280087878F8E908D898385848382757A787C47
:103C38007F8A88828182767780898E8480767F8267
:103C48008A878B8A85837E85858579787874747D63
:103C58007F7D7E807B777B7C847F7B72758085808F
:103C680080837E7C7C807F82726F73726F767D7BAF
:103C78007D7A79727A7A7F7D77706C737A78787CBE
:103C88007D7F7981868E877F827F7A7A848280841D
:103C98007F747C828E8E8D8C878A93949196909176
:103CA80084868A8A887F8487878D979A97908D8360
:103CB800828888827D797A7D8388848586857B77EA
:103CC8007E7F7E73706F676B70767B7F827E7A7A79
:103CD8007A7775706E68677070768284847E818763
:103CE800837A706E6A6E737272767270707D8E8E61
:103CF8008D817D756C73716D737575696F808A9030
:103D08008C8B858A867F74707A78757B888E8A8C8E
:103D1800929496999A8D8D8785797278767D838C21
:103D28008F93918B878B8E8E857E84888788898AEE
:103D3800939DA09C999490887F817C7B80808682CB
:103D480079706D808B888378767A757371777882CD
:103D5800848D8E817E6F737A7C79746776797C79AD
:103D6800777E82816F8297A2897570777C736A6487
:103D78006B72757A7B8080767E6F6D73726A6B79F1
:103D8800888583849BAE94817A77787A76786C7B01
:103D98007D84888C7E61706D6D798281828C979923
:103DA8009B90898F857F7C7D847C7A7B73817C82E4
:103DB8007A68746D716F73808B9487858A837C8031
:103DC800797D8381757D7F7C8381857A817974662D
:103DD8006468636C708085837E82838185898A9715
:103DE800A192897C75788089848883847D7B817D94
:103DF800867E7D87807A7C74757A808B979395947C
:103E0800807F7B7D848A877D7F727072707F7D80E2
:103E18007F7F7B807D79837D869498989B8B87793B
:103E28007A7C8184787871766C6F757A7F7E787405
:103E38007A767777757E7F7F8B8B8B877C797B868D
:103E480085867A757772777B7F817F7877737170D3
:103E58007B80898C8C938A8A8F8D807E7672777A24
:103E6800797670767D828884817976697378828B99
:103E7800828B898787878883817A737574827D743A
:103E88007B7B818383797C71686A738284858E8F5A
:103E98008C8F8E8C8B9386857E797A727B798483DE
:103EA800878788887D7A7F7E87877E8E88868385C8
:103EB8008182908B887E79746A75808586837F7A03
:103EC8007F6F76797A7F7885888C86898F878F92BD
:103ED8008E92848075676C727F7F8378766E697442
:103EE800757B7C777A84807D7C807C8281838B8BD8
:103EF80089706E747B7E8B8B8483736B767A797A08
:103F0800737A7A817A7D7F848E858C84878D7F7B96
:103F18007C7C7C7C827D827975767785807E8187C2
:103F28008181847E8383868C8884808185817D7766
:103F3800817B7F8179837A77797A7C7E7B75737CC4
:103F48007C827F85938E9083828D91888580777B14
:103F58007672757A7F75727B7F84787D78777F78C3
:103F6800828688847C7D818D908D85777E77797E29
:103F78007B8584807D81807B787474747885858363
:103F880085818280868F988F867F7175777A7B7B13
:103F98007D807F777A867C7A7A778784837F7F7B38
:103FA8007A80838F9393827272777B7F79828A86F5
:103FB8007B777673787171727E817F7A7F8582854F
:103FC800858C948F827D75797C7F7B797F7F7972F0
:103FD800777C7C7774717C827C7E8284817F7F850C
:103FE8008B8E847C777D848785818B8A807D807E9B
:103FF8007D7775747B858483878F8D8A858D919471
:104008008E8B877E8386847C8283817A7E827F7E84
:1040180076727A8B8886878883817D8184858A8376
:104028007E7577807E777C827C7176797673696617
:10403800687A807E7E82827D797A8286877D7E76A6
:10404800757C7977757776736E7377767874758003
:104058008885828384807D7E84868B88848381861C
:10406800848483868A7F7B8181817E79747786893F
:10407800888D918F8B888D9194928A8A817E7E7C9F
:104088007B7A7C7F7C7D7E7C7B747475818282895F
:10409800918E86817E8385887F7A7A7A7D7D7A7D06
:1040A8007B7D757B8075766E6966737C7A7C828B86
:1040B8008D8885898A8C817E7D7A75747C7D7A76F7
:1040C800746C73757A7A736E7481848A898A85862A
:1040D800858C918E837D818083827F7F8683827C9D
:1040E8007D7A797A7674707A7D82858A8A87888BD8
:1040F800939D9A85797777797F7D7E7C7F8488897F
:10410800807F7E8182888E87858584807770777F9F
:104118008B83807A70736E7A7B80797481898179D8
:104128006C62636B838C847A77798282858A9498AF
:10413800959F968F8B7A8082817972868888817024
:104148005D5F788E9081726C627075736C6C696A51
:10415800888E94765E74847E898B9199A69999A0AD
:10416800727DA0B5957973706A778074799AC5BEA7
:10417800AD9A96976A45413031437D633B47505825
:1041880077AEAD915F80A9CBB2CBCCC5DBE0D09642
:104198006552923F6376819293812B3C4883957256
:1041A80039220948868F6A57819DE3DDC19784A229
:1041B800AA9B777099987375625884694A705634C7
:1041C8002235594C3A1661A5CED16183A4A2A18F9C
:1041D800A4B5CFAFC0BCB4BEBAC8AB836857486EED
:1041E80067695F5386AA976C373B6E7F7151698BFD
:1041F800AD8379989975636E76755D738D9A706ED7
:104208007B859A8C67443A50717D6C6E8175726FAC
:1042180070929F8D928C828DA89C8480879A9CA492
:10422800977A776F757478868A6241434F707C916C
:10423800826A5D6772728C898988879EA28984796F
:10424800646670808B9379665F73767782888476EC
:104258007E8AA8949AABCECDBDAE866E5067718625
:10426800738995868C646761675D56516A706D8243
:1042780079737CC0BDB5845B635A6E7A91909F84D4
:1042880084969986696D62675169907F6C80778D95
:10429800A3BAD09E745A6C738796A2967E9A8A7E29
:1042A8007A937C5B3D33515E7C7B75689ABFBAA379
:1042B8009A6C4A4D5172637B7A95908D9E9FB29FFE
:1042C8007C4C55535E678EA9B9D3C4BB8880747B78
:1042D8005A5E667F9E8F9B7189798B7D757C52446F
:1042E8004F514F7596D8C9B48E76685664778073E7
:1042F8007A698062797C7A88647E728E85705D7155
:104308007896B9B9B27E7D6071778D93927C798AFF
:1043180082908F9F8183675E646F775F5E6A9A9AE7
:10432800A9957E655A5753677B907183647E9492F2
:10433800947E6A575D5D6F76A493B1AFB49C66793D
:104348007F87829389A69AB99A81836A876E775BF9
:10435800565E6A5F6F8CB6BE8E85585E5567758EE1
:1043680099A9AB90958191797A61595564756C6E6C
:104378006C8281ADBDB0815A5160708099ADBA9997
:104388009B8E8C979E9D7E73626E717A70727E870B
:10439800A396AFA1744A42485C66727F6C77687FC7
:1043A8007D8B8C7E62506572877E9792B7C0BE9B6C
:1043B800758266594F6E60807F90897E978B947066
:1043C8007F65726E797F8AA8A6BAB1AC746D517098
:1043D8007770746F7F6C866F81737D765B596073BD
:1043E8006B7D646E7398A7A4937B70687D7DA89C91
:1043F800A48C747E6A888DA79C867B7788948D713F
:104408006F6E96A1A4906E67485D5C7F9BA6917CB9
:1044180072618B87A387765D50656374696C6F8B57
:104428009DAAA07E695C62647688B9BBA4917B86EC
:10443800849E89806E6C77878989988B999BA699C9
:104448007C6C5F6C69748A899B937E565E556E7727
:1044580079716576708A6F8581939DA29286827044
:104468007F847A73787B828B7D6671678C8387798A
:1044780077868D948B8F95B1A6B2917D6B696E739B
:1044880075687181828B7F6C6A606F6B6A596A7418
:10449800847A7C778FA39FA37969596E7B85818302
:1044A800899A8793867079748D8A8A757E7F8976D2
:1044B800776D819A909D8B867580838E8187819791
:1044C8008E838D6C7D70817F735D5D5F67625E62D8
:1044D800699B9DAD977D71767E938F81889BA6950C
:1044E80098727270818A80706A747F9991907B98B3
:1044F8009BA6A6826F677A8193827D81937D7B6B71
:10450800597169897D6E6A6D757669645F7F999660
:10451800AC91826D797779755F69838E8C93788693
:1045280080959F877F73737D8E8D83789790A0A3E6
:104538008880656D757B6F6075878A947F6A696C02
:10454800908B7C735E68797A6D5B6981909F8D90A2
:10455800797C8C8B89686B7785958F76777B95AA24
:10456800A38D6D6A798B8171728D92B0AF9E8364D1
:1045780078859A7D6D677899A0886D585C8489855F
:104588006250597C8D867F7883929B99916B737C5E
:104598008C896E6B688A978D715B648CA3A2876C1B
:1045A8006B81A394867B8095ABB0A079697384876F
:1045B800685B4F708F958562556C87947F574E5214
:1045C80077877E7A7E8F9EB5B38C66656D7E7B6DB0
:1045D8006570949B9178687091A59E775D6683A0BD
:1045E8009382777D8EADAB9B726D88969E836F614B
:1045F80082988F715858718C916C4941526E6E6DCA
:104608006A7C8BACB49E77737E979A80776C879F11
:104618009B807D76959E9F7F5B596F9490837A846B
:1046280093AFA3986667798E93837B7486968A6A1C
:104638006D627E817B5F4C4C617C7E70768EA8B00B
:104648009C895D657689837A716D6F8388828C9683
:10465800A4A08C746B727C898C7E8C9FBBAA91778A
:104668006764757F7D7577767D8583827B898079A0
:104678005A55515966707B8792AEB49575596467DF
:104688007B85808280817C788B888D8E827B6D751E
:10469800888E978E9D9E9FA59084696E7B7C7F8374
:1046A800838582837D7B898E7E695E5455626F6ABD
:1046B800707B8AAB9B948C8378757B707372787BE4
:1046C80083858E889188725D5A676F828D9C9EB5AE
:1046D800AFAA907D878A8D7E81757679878E9A9B21
:1046E8008C765B5D4D5557696C7E8F999C86786496
:1046F8006F68817F837E8484818C869688836A62D2
:10470800526D7378818EA4ACBEA69675766F7E784E
:104718008487807D75847D9A9798877D6C6F697290
:104728007C7889919F86867171696968686B707DEC
:1047380079848493858573645E636E77737F9A9FAB
:10474800AC9B967C7E7E79726D71787B879F9DA6E7
:10475800988E72646167748284979FA1B39E8C70EF
:104768006B646569726F76717D9192AE98856D5AAA
:104778004F585F6C73869AA0AA867C69666D7A82A8
:10478800888A8F8B828B8D9F8F86735F5B69717D23
:10479800858DA1AAB198896A687173737A737277E3
:1047A8007C9290998B836D686B6D707875798D9715
:1047B800A0968871796F707276717079798D94A4EA
:1047C8009B8A75655C5F6E77778A9DA6B0A9998884
:1047D800877D7F756A6E6B6F74828895978974552B
:1047E80047505F70899CA4B4B8A08A766E6E7574C1
:1047F80077766B747B878F9D967E6E564F55637266
:10480800808694AAA8A499847880858A968C8584C1
:104818007E868C87826F645657616A797D88939DFE
:10482800A1A2917F7B716E787F8589847B7F848844
:10483800968A786658596673757B80909C9B8A7CAB
:10484800746F7879767F83828F919AA3A99E937DDE
:104858005A4F4C58677B7E8895A2A898857A7D74B4
:104868007673706C737A88989DA4917D6A605A6B90
:104878007278808D9A9E9C8A7E6A62606A74808350
:10488800818285909CA7988C795F555D6972797F44
:104898008DA1A59A8B7E7B80818188867A72716DC5
:1048A8007D8194947E715A4F546E777B7D8B99AF3E
:1048B800AFA2918283777066747471787884919EC0
:1048C8009D967B645F5D595A676A8292A9B2A28DF0
:1048D8007A7A86828080818C8084808688867980B6
:1048E8006A4A4F738F777D8991919C8D826E686A31
:1048F800686F738792979899927F899D8F8A73655D
:104908006770646165788E99A7937D707C737986EA
:104918008EA08C8576686E808B9283616760656EE9
:104928006C6173808C998D7D788B817A606B7B7CD0
:1049380093B1A58C80808C8C8E87786C797E837FF0
:10494800868D968F8682769197988A827C76827BEE
:104958008084A1A18B786B6365707C7D788491A13C
:104968008D8F7B6D606F796E5E536267728B928CF0
:104978008D84856F73737E7573707683A2AC9F90F8
:104988007A826F7B837D6D6E787B7D91989D979100
:1049980077515C667B89969B98A6A79E81757D7DDD
:1049A8007A7E7D776A6976818397AB8D8B796F671D
:1049B8007A868A877C84878F9195818277787377C6
:1049C800808B867C7B7C828B94776B5A5F525B6B87
:1049D8006C7D899A887E7083827C7C78705C6D722D
:1049E8006F6E7F90958884685B5F6F6D6679809342
:1049F800908D7E74788085726569707C8C9A9B9A9C
:104A0800968E876C6E71787C7A7E77979A9D998B53
:104A1800857D81848A807C818A848E969D958B7E13
:104A2800717278918C969AB1B0AAA19094827E6F97
:104A38006F6B7C7C75798496969D91846C656B7799
:104A4800808C8E889496968E92888379736D636C29
:104A5800747F72737880756A655759596064717E7E
:104A6800959C95938B80766A5F605A5E62676E75D7
:104A78007C757D7C6D605A585D636A747D949998E5
:104A88008985857B766E6B6E757F8B8A959CA091E8
:104A9800817D6D6966696A72748598A1A9A49D8DE6
:104AA8008E837E7D8084848786888C9994897B8494
:104AB80089888680807B8785938B908D807C787CA5
:104AC80076857F80787E898A8D8A8B796C76807AE4
:104AD800797774808987828481827D7171726E6929
:104AE8006B686B6976756F6A6C7069788487838583
:104AF8008B92969488867D827A6F767E786F7370B3
:104B080076798D89867B818880858D8F898D838A4A
:104B18008C918C98A29FA295908A8E8484797A78B9
:104B28007B7B79777788858A8D9588857D7D7E7E64
:104B38007B7884818C8782868F8B86847E7477715C
:104B480075726C766F6B6C7C787C6F696D6E6D724C
:104B5800838289827D7D888486807C736C6D6A708F
:104B680066746D6F6F7E817B746D7474796974710E
:104B78007F82828893948B8D8E908C9188907F828F
:104B880081827D858A7B7D7682848E8490939BA1A9
:104B98009696979589877B817E847D82878D968E70
:104BA8008D8995878A7C7A75706C6D7B80928586F5
:104BB800878C837F7B7A7D8177767C7D8680817BFD
:104BC8008C8582786D6C6B6E707E7B847E7A828435
:104BD8007D746C67666D68687372817D81828F945D
:104BE800897C6C716C70686A6F7777787F878E863E
:104BF80083838B919487878083858B8E90917E7C2D
:104C0800737D8283828C94999E95989997897F74F5
:104C18007B8584797F7E86918F9590938E8B757135
:104C2800767777797F868C898D898B7D75727B8283
:104C38008B7D767877817D81787D74706A6C7377E7
:104C4800787584878F89827F7F76736C686F6D6BC8
:104C58006572717A7F7E8382868079797A74716EC3
:104C68007377797A75797F86838184818B88868A40
:104C78008D8A8A87818481847C807E86878B8F90C9
:104C8800928C8B8997918D807E808588858E919274
:104C98008B8B84858E8C83808487867B756E7178F8
:104CA8007C858D90817B7A7E878D898487848275C7
:104CB8007171716F6B6F7C817A647188909C837855
:104CC800838675766A6C757060707D70705A7176BF
:104CD800727A75707C8472788A89837E777B6F7428
:104CE8007A687A778497ACA18695867162707C879A
:104CF80089876C7B9DABA99CA69E9C8A81787973D9
:104D08006A686E7C8F9D9B988D857B847A797D758A
:104D180078848D969B9689868374706B738086736E
:104D28006C7A83898F94837570796A617170677BF7
:104D380093A3B49D938885776C6C77736575757E3E
:104D480078898688766A76706A707A7A7E7E9483A5
:104D58009A96838185827486797482827874759C28
:104D6800918B8C7570766C6575788789939DB29DEB
:104D780095907D7D8A878087828766677389898811
:104D8800837E8B7F78737C838E829084919C877AD4
:104D9800767D6A7D7B84887F787577888E7A81773F
:104DA80068707366787979827E7E9496808C817B30
:104DB8007D7C84716D7B6D66677F80797E75746A92
:104DC800736F707F887C8180879D8B7F7A737579FC
:104DD80075787475727771849183918A7B7F7D6B06
:104DE80081837F837F869FB29C9B9484797C89830F
:104DF80077797E7D7383917E838A8D7D82827B85A0
:104E0800838B88838BA19F94937569747377776E6E
:104E18006F756C7893838385778281777076747FDA
:104E28008877889A918A8A79726D686F70727673BA
:104E38006072908776858B7D7770736E77788379CB
:104E48007DA599868A84706E64767A7A7472716F99
:104E5800988D8A9990807F76747C817E7F838BA1E0
:104E6800959A96917F797D837F7A82797B6F9094EA
:104E780089928D8475757A77787E83877399A696DB
:104E8800937F7A7374787E7669717168909D8F8F3D
:104E9800867A737771687780757B7C8B99898B8923
:104EA8007D7370776F706F6C766C849B81807F8167
:104EB8007A6F746D7A787B8D7C879C948A82857CE6
:104EC800697175706D7783788493928A8C857E7208
:104ED800737C7A8778847D879F95928B807D79759E
:104EE80074727E7E8C797B94868485897A6C6F73E4
:104EF8007D81838880829A9E8F7C8080716E787C89
:104F080077787E7B77898E87828080756F70737ED5
:104F180079808284928B8781808077757D7B7F7D85
:104F28007C6E748D89857E827D736E71777D7E89B6
:104F38008B848D928982858A837377777D6F737668
:104F48007A898E9186827A7D787A7F857D7A828940
:104F58008B8C8C848186877F7F78787877787E8C35
:104F68008C85837C787574757D807A82858283913F
:104F7800948C8382857C7476756E74767B83868444
:104F880086837F7F7D7A7B7E797B767C878A8D8618
:104F980081807C81827C77787E747C8587857F7D23
:104FA8007D77787E787E7B7D7D858D8C8C878584EA
:104FB80081877D717D737776797E7E7E85887E8315
:104FC80087837B807980858996888081818488879A
:104FD800817A76797B767A817C7B817D8381797D04
:104FE80075768288868A858788888F90837A7E6E90
:104FF80073807C6E70737E807E87858A8B867C85C5
:105008007D7C7F7E7F8386818A84827C797F85818F
:105018008275727E7F8A86807B8283817B75787BAE
:105028007D7E867E8B8A858C837979797C7F827375
:105038006E7B788784878B898E897372757D82777A
:105048007F82888585888883847D7C767B8076804E
:105058007D828383848A8786776B737980777A7E6B
:10506800858B8A88877D7B756D787B7E74797B7A62
:105078007F888F918D857F74767B7B7A7F7880900F
:10508800998E8F988F8E756A7D87867671727985ED
:105098007E82877376796660767D85796E7770799A
:1050A8008790809A919C85566A7C7E698587989FAF
:1050B8009A91BCC28E8A91A594794B50524B635BEE
:1050C8004C4E3B4554527794B0A19785949CADDFE4
:1050D800E5CEBEB8B9DBD7BD8B7B8E926E4E1C2851
:1050E800534A2B12234651131625213236132E53B9
:1050F8003A2E2C5D857A4C4775A2B495ABBEA37E3B
:10510800668DBBC1A39496A29C8DADADA69B849AD7
:10511800B3BEA68D859DCCD9D7BCB9DCE4C7A79F03
:10512800ADB59392A8AB9B8DABBEB4937B8A9B9A8B
:1051380098878573758276696C756E5B5A7660663A
:105148005957695C6764728079685C5E555263621E
:10515800686A65656E78735B464F4B46343A4A42D7
:1051680039252A3B3B3539403D37373A53575A574B
:10517800565F5F68636B6D6D5A63687379676964BE
:1051880064656D69695D68685D686E5F5C5E6A78B4
:105198006D6F717A807F8691888791A5B0B8BCC3FE
:1051A800BCB7D1D6D5CCD1D6E2EAE2F1F0F0F4EE34
:1051B800EDE5E9EADED0C8C9C2C2BDBBB9B2AEA846
:1051C800A9ACA79D8F909E9D837E808485797D82E2
:1051D8007F736B686C68696F7B7C67676C6D746BD9
:1051E800636362645B625C5C5D4A4E4A4B48464955
:1051F8004C443F443F424047464B4E515558605CF3
:105208005852545B69616464686E6F806D64675E50
:105218005A53555B57645D555D5C6269695F5458C4
:105228005A656E67757A7E767B7E7C7E7C7E82830D
:1052380078818D98969492969C9FA4AB9B90969B10
:10524800AEA6A7AEB5B4B6AFA4A9ACA1968886970A
:1052580094A4AEA5A7B1ACB1B3ADA49CADC3C3B77C
:10526800BBC7D4CBC3C2BEB5AEB7AFADA49AA5A7D2
:10527800B0ACA3A5A4A09B9A94807D7C7C8B8A84E7
:105288008077797E745D45495350443F37333B44BA
:105298004C4D432E262E433C3C39434A4E615D63B8
:1052A8005E6D6F695E5A5C63665D5F5E6D7684866F
:1052B8007A746E73827F756A6A75787D7F796D6F8F
:1052C8007C775D5755534F484E4E46506A6D6A5F1E
:1052D8005B666E6F6D6971868C989A9B99A2B6BE53
:1052E800AB97979C9B98A0959295A3B2B7B2A6A2AC
:1052F800ABAF9F96989C9FA2A8B5B2ABB5B4A28C51
:105308007D6E70737579787A839DA79E8E86818469
:10531800837F7B818D959FA4A9A6B3AEA792807742
:105328007A817E80777E809AA8A69C827E81766824
:1053380065616B71818D898185948E714C443B4088
:10534800474843454B608079705251514E4A403E20
:105358004B5F6A7D76797A8E8B795D42424D6463C4
:1053680069637486A5A89C8C7D857B7B6764738E36
:1053780095A3A4A4AABABF9D805F66678283848828
:105388008CA4BAB8A49E8B87778070707C8BA1ACF4
:10539800A4A8B0B0B59277575E617B786D71758EB1
:1053A8009FA78E8972726D655D60758C93979AA0C0
:1053B800A9A5AC92775B686D81807D858C9EADB622
:1053C8009495828A848578768393A29FA198A89BD6
:1053D800A58A74595E65757E7075738D8A90727A28
:1053E8006B6D6D655F586B7D8E7D84798E8B9A8130
:1053F8005E4A4E6265685B66697B7A83605F555E6C
:105408005E4B51547379817172728D95927964559E
:1054180060737884707D849DA49D868E9395948F07
:105428008F8AA0A9B79B9899B3C7C8B38B7A768D92
:10543800918C797B7E98A19E7E7173758F78645B61
:10544800697C92827C738DA5ADA1706463767A863F
:1054580072757B8D9D9E8E777F7C7E7D82717E8C22
:10546800958D7E8494A4A19A7A665866666566646A
:105478008B8989847869636667665457657E8685F3
:105488006D617096A795805A4B51696971747C8DCE
:105498009A9885867E83878A7C797D8A9F95838181
:1054A80084A3B9AF9D7B6C5F70706D697584868FBE
:1054B80078655A66666452525C65757F78767C8733
:1054C800A1968C736B6878787686899CA4B39F962E
:1054D8008E939B9B938D9499B4B7ACA1A1ACC2BB9E
:1054E800B8968B8B8E937D837B9291A79A8B7F7ACC
:1054F8007F7E7763737791928F747A8299A1908374
:10550800717166725E69627C7A85836E6F65726698
:105518006D54646C84857A5C58708C9C877E636A51
:105528005E684E5E576A7983886871617463695AE8
:105538006B768C908A7B6E8895B5988C6F7E798512
:1055480077777C819490A57D8B7F8C8182726C8229
:1055580089958F8C768F97B19F927979787A7565CE
:105568006E6D8A8097767C777674696555737A94C0
:105578008C927F939AAFB09C8C7F867A86748E8942
:10558800A698A6998B9B8C927A7F6B81849C999B19
:10559800898C99A5B49A90747D6B7C67797787908C
:1055A8008C8D73866E78676A58677086918A817A5F
:1055B8009496B0938A6F79717B6D6872748A8493BC
:1055C8006D7C66665C6058566A6C837978647A7814
:1055D800938B7C6C6C6A6A6657696380768C72748C
:1055E8006F69675A594C686E89828066778193998A
:1055F800867870796D786B8382988E9A8D818B818D
:105608008D7B836B8085999E9E898A9DA2B4A29A80
:105618008288798279888B91948C907B8A71766A5A
:1056280070686E7D828C8680789293A5958A76794B
:105638007674777D8E909B8D9E8A958984807E84F2
:105648007C8B8F9EA1A28D9898ABA8A4958B8D85F5
:10565800837A918B9D92A49998927F82777C6C72C1
:10566800707E79846F767B8B9486755C64515C4818
:10567800615C6B656F6F63735E67525B444F4E6628
:105688006A73665B707D99898E69705E655A667308
:105698007F8B8B9A81947C887170635F6C7A8A8720
:1056A8008973898BA28D86727675716B6A7A7A8F07
:1056B8008AA7909D908E8179807888889F97A08C02
:1056C8009EABBBAD9B8B86867E7E6C837F9E959FB3
:1056D8008C8B8984836D7765787C918E948891A072
:1056E800AEA9928781836B6F5E7D899F9A9B8C851B
:1056F8008C83907884768082959A9B918FA0ACB3A6
:10570800A29B8D8E7B7F70898A9697949E8C9C8BAA
:1057180095786E5E5B6A7B89807E74808B988571D4
:10572800565D51514C556661756D785F6B65665A6B
:1057380048483E4C53686C6F6B77839585716163FD
:105748005F5751465C5F7A788683807E6D715F63B0
:10575800545760757C7D7D7D8591A2968A7A7562A5
:10576800615C6E777E8C8DA095A3939B8B878476E6
:105778007E7E9C9EAD9EA9A9C5C8B5A89D9F8C8913
:105788007284859895A2A3A1A39396818668675F82
:105798006C7A7C80798F9FB8A1987F81796D6A5BDC
:1057A800696C837D938D9796A0A0959270706E8694
:1057B800878B858890ABB3A195899183725D5D6A6B
:1057C8007479757A7E8A89888A8284706B5B6A6F3D
:1057D800736A60757E968A87828A857B6F64625455
:1057E8005C626768686F7374797D7F74727B7470AC
:1057F8006D6E7E919A958E8A7882847E838084717C
:10580800746B7277787567676366656F69655F6AD9
:10581800706C77796E798277737E8D8A8A969E9777
:10582800A09D908B82808885998D81958B788174D5
:105838005B5954657D9CACC3C1AC98A6ACAEBAA10B
:10584800A08EA3A8888164504C586E7F9B9787854B
:105858007B7590C0CACCCAA6A29C928672867B8EA3
:10586800B0A087919C88615451425E4D3C333A42C6
:105878005A7F8D8B95AA9DA7AEBFC1C4B5BCBF9FEB
:10588800804F4E4B4553655447453536303738427F
:105898005153586C6C72808A836C777088889395A2
:1058A8009B9E8C8C676060616A7A736B6B6B827F7E
:1058B8008071768282A495A5A8B1BBA3A18B8774B9
:1058C8006F718B9FB1A3AFB4A1AE94886F62665B12
:1058D8004C5A5E71878C9C97A8BBC5C4B4A0958DA3
:1058E8007860595D606065605C6E787F736E6E731A
:1058F800604A4B4750434E49708195A8979B8FAD9E
:105908008F8D90969FACAB9D908E95889F7F858557
:105918008E96898C8E8D887B7A92808B7B808791FE
:105928009A7D8983828B8F9BA1A0A392A19E949438
:1059380081806F70636E7685786E6B6E725F5E4580
:105948005E4C54453E4E566F676E6F7A6A7B6F6B3E
:105958006059664F5C5C665B5163686B6A7A7E87E8
:10596800857C7A717E737666718C97ADA6AD9D94B1
:1059780087888D92A0999D99A8979AA19E9E9595A2
:105988008CA0A6A99FA49AA3A4979C9A9386858283
:1059980089898F8B7C717D8081777A777C726C7432
:1059A8007982787F677874746F6A5B5876747B7ACB
:1059B8007F6764535972747B7C87837F807D879D62
:1059C800A8AA9C999DA4AAA99E8F948D8B83888C44
:1059D8008E8B868B7C776C6A6662616B79908A8223
:1059E8008986A1A1A39B9E968A8E8F8A7D7C6A5FF9
:1059F8006367615E585758515350555B54534A4B2F
:105A080056585E64716E6E726E65717F7E7B767DB0
:105A180079787E8C8E858483777A7E7D7B71808A87
:105A28009497908D898A8B8E96A5ACA49F9BA59DF3
:105A38009B9C928C838F97A6ABA8938487959D8A0D
:105A480084868986898D8784817E7C707173728053
:105A580080776B6762595B6A7471767F7D74787B37
:105A6800706054554C545A676C6E7F8088898C8E50
:105A7800877D7E81878D8F8D94A6ACACA8AEA896C5
:105A880087837A82817B7D6C686E81858C9687801E
:105A9800878E969992958B908F89929AA69C9181E0
:105AA8007072727472615B65685F5D716761606373
:105AB80068646862625C63656766635E585F666EA9
:105AC8007784847C7B827D726F72716C6D77828B38
